:020000040800F2
:1000000000500020750B00085D060008650600081A
:100010006D060008750600087D0600080000000057
:10002000000000000000000000000000850600083D
:1000300091060008000000009D060008A9060008BF
:10004000BD0B0008BD0B0008BD0B0008BD0B000870
:10005000BD0B0008BD0B0008BD0B0008BD0B000860
:10006000BD0B0008BD0B0008BD0B0008BD0B000850
:10007000BD0B0008BD0B0008BD0B0008BD0B000840
:10008000BD0B0008BD0B0008BD0B0008BD0B000830
:10009000BD0B0008BD0B0008BD0B0008B50600082D
:1000A000BD0B0008C9060008BD0B0008BD0B000809
:1000B000BD0B0008BD0B0008BD0B0008BD0B000800
:1000C000BD0B0008BD0B0008BD0B0008BD0B0008F0
:1000D000BD0B0008BD0B0008BD0B0008BD0B0008E0
:1000E000DD060008BD0B0008BD0B00080000000085
:1000F0000000000000000000000000000000000000
:0C01000000000000000000005FF808F1A3
:10010C000348044B834202D0034B03B1184770479A
:10011C000C0000200C000020000000000548064BDD
:10012C001B1AD90F01EBA301491002D0034B03B1E9
:10013C00184770470C0000200C0000200000000045
:10014C0010B5064C237843B9FFF7DAFF044B13B113
:10015C000448AFF300800123237010BD0C00002075
:10016C0000000000CC37000808B5054B1BB1054951
:10017C000548AFF30080BDE80840FFF7CFBF00BFD4
:10018C000000000010000020CC37000880B584B0BF
:10019C0000AF3B1D00221A605A609A60184B194A36
:1001AC001A60174B00229A60154B00221A73144BDD
:1001BC0000221A75124B4FF46022DA61104B0022A8
:1001CC005A600F4B01221A610D4800F079FD03466D
:1001DC00002B01D000F001FA03237B600123BB60EC
:1001EC000023FB603B1D1946054800F041FE034609
:1001FC00002B01D000F0F1F900BF1037BD4680BDD7
:10020C00280000200024014080B588B000AF786041
:10021C0007F1100300221A605A609A60DA607B685A
:10022C001B68144A934221D1134B9B69124A43F425
:10023C0000739361104B9B6903F40073FB60FB68C4
:10024C000D4B9B690C4A43F0040393610A4B9B6969
:10025C0003F00403BB60BB6848233B6103237B6151
:10026C0007F110031946054801F04AF800BF203782
:10027C00BD4680BD00240140001002400008014032
:10028C0080B588B000AF07F1100300221A605A60E5
:10029C009A60DA604D4B9B694C4A43F020039361A2
:1002AC004A4B9B6903F02003FB60FB68474B9B693F
:1002BC00464A43F004039361444B9B6903F00403E7
:1002CC00BB60BB68414B9B69404A43F00803936198
:1002DC003E4B9B6903F008037B607B680122102175
:1002EC003B4801F091F9002243F23801394801F002
:1002FC008BF900224FF40041354801F085F90423B5
:10030C003B6100237B610123BB6107F1100319469C
:10031C002F4800F0F5FF10233B6101237B61012383
:10032C00BB610323FB6107F110031946284800F059
:10033C00E7FF4FF4C5533B61274B7B610123BB6146
:10034C0007F110031946224800F0DAFF43F21803B4
:10035C003B6101237B610023BB610323FB6107F13C
:10036C00100319461B4800F0CBFF4FF400433B61D0
:10037C0001237B610023BB610323FB6107F11003A5
:10038C001946134800F0BCFF20233B6101237B611D
:10039C000023BB610223FB6107F1100319460D48D2
:1003AC0000F0AEFF02220221172000F072FF17208E
:1003BC0000F08BFF02220221282000F06AFF282087
:1003CC0000F083FF00BF2037BD4680BD0010024007
:1003DC0000080140000C01400000211080B500AF66
:1003EC00124B134A1A60114B124A5A600F4B0022DF
:1003FC009A600E4B0022DA600C4B4FF480421A616B
:10040C000A4B00225A61094B00229A61074B0022C9
:10041C00DA61064B00221A62044801F049F90346DE
:10042C00002B01D000F0D9F800BF80BD580000208F
:10043C0000540040801A060080B58AB000AF786086
:10044C0007F1140300221A605A609A60DA607B6824
:10045C001B681D4A934232D11C4B9B691B4A43F0CB
:10046C0008039361194B9B6903F008033B613B69DB
:10047C004FF440737B611223BB6103233B6207F192
:10048C0014031946124800F03BFF124B5B687B6269
:10049C007B6A43F0E0637B627B6A43F002037B621E
:1004AC000C4A7B6A5360094BDB69084A43F400131E
:1004BC00D361064BDB6903F40013FB60FB6800BFE0
:1004CC002837BD4680BD00BF0054004000100240DC
:1004DC00000C01400000014080B500AF00F06AFB49
:1004EC0000F020F8FFF7CCFE00F054F900F0C8F94A
:1004FC0000F0C4FAFFF74AFE00F0FCF8FFF76EFFBD
:10050C0003F050F802F02CFF03F020F910210448FE
:10051C0001F092F84FF4FA7000F0AEFB00BFF1E777
:10052C000008014080B594B000AF07F128032822E1
:10053C000021184603F03CF907F1140300221A605D
:10054C005A609A60DA601A613B1D00221A605A6088
:10055C009A60DA600123BB624FF48033FB620023A4
:10056C003B630123BB6302237B644FF48033BB6486
:10057C004FF4E013FB6407F12803184601F0DCF993
:10058C000346002B01D000F028F80F237B610223D7
:10059C00BB610023FB614FF480633B6200237B62F1
:1005AC0007F114030221184601F048FC0346002B06
:1005BC0001D000F012F802237B604FF40043FB6083
:1005CC003B1D184601F0D2FD0346002B01D000F074
:1005DC0004F800BF5037BD4680BD80B400AF72B682
:1005EC0000BF00BFFDE7000080B584B000AF164B24
:1005FC009B69154A43F001039361134B9B6903F00C
:10060C000103BB60BB68104BDB690F4A43F080539E
:10061C00D3610D4BDB6903F080537B607B68052055
:10062C0000F02CFE094B5B68FB60FB6823F0E06379
:10063C00FB60FB6843F00073FB60044AFB6853608B
:10064C0000BF1037BD4680BD0010024000000140C5
:10065C0080B400AF00BFFDE780B400AF00BFFDE782
:10066C0080B400AF00BFFDE780B400AF00BFFDE772
:10067C0080B400AF00BFFDE780B400AF00BFBD4643
:10068C0080BC704780B400AF00BFBD4680BC7047D3
:10069C0080B400AF00BFBD4680BC704780B500AFD2
:1006AC0000F0CEFA00BF80BD80B500AF202000F076
:1006BC00DDFF802000F0DAFF00BF80BD80B500AF09
:1006CC00024801F052FF00BF80BD00BFAC0000200B
:1006DC0080B500AF4FF4006000F0C8FF4FF48050BD
:1006EC0000F0C4FF00BF80BD80B400AF00BFBD46AA
:1006FC0080BC704780B586B000AF07F108030022BC
:10070C001A605A609A60DA603B4600221A605A609E
:10071C001E4B1F4A1A601D4B41F61F425A601B4B61
:10072C0000229A60194B3122DA60184B00221A61B0
:10073C00164B00225A61154B00229A61134801F0A6
:10074C00CBFD0346002B01D0FFF747FF4FF480533E
:10075C00BB6007F1080319460C4802F0CDF80346BC
:10076C00002B01D0FFF739FF00233B6000237B6097
:10077C003B461946054802F031FC0346002B01D0DC
:10078C00FFF72BFF00BF1837BD4680BDAC00002023
:10079C00002C014080B58EB000AF07F12803002279
:1007AC001A605A609A60DA6007F1200300221A601E
:1007BC005A603B1D00221A605A609A60DA601A6116
:1007CC005A619A612C4B2D4A1A602B4B00225A60AD
:1007DC00294B00229A60284B41F61F42DA60264BC7
:1007EC0000221A61244B00229A61234801F074FD07
:1007FC000346002B01D0FFF7F0FE4FF48053BB6291
:10080C0007F1280319461C4802F076F80346002B22
:10081C0001D0FFF7E2FE184801F0ADFD0346002BB6
:10082C0001D0FFF7DAFE00233B6200237B6207F165
:10083C0020031946104802F0D1FB0346002B01D0CF
:10084C00FFF7CBFE60237B600023BB600023FB60C3
:10085C0000237B613B1D0C221946074801F08EFFDB
:10086C000346002B01D0FFF7B8FE034800F0D4F884
:10087C0000BF3837BD4680BDF400002000040040A6
:10088C0080B58CB000AF07F10C0324220021184670
:10089C0002F08EFF3B1D00221A605A60204B214A49
:1008AC001A601F4B00225A601D4B00229A601C4B91
:1008BC004FF6FF72DA601A4B00221A61184B0022B5
:1008CC009A610323FB6000233B6101237B610023BE
:1008DC00BB610A23FB6100233B6201237B62002383
:1008EC00BB620A23FB6207F10C0319460C4801F0AA
:1008FC009AFD0346002B01D0FFF76FFE00237B60AF
:10090C000023BB603B1D1946054802F067FB0346FC
:10091C00002B01D0FFF761FE00BF3037BD4680BD14
:10092C003C0100200008004080B584B000AF786026
:10093C007B681B68164A934214D1164B9B69154A67
:10094C0043F400639361134B9B6903F40063FB60F6
:10095C00FB6803220121192000F09BFC192000F0F8
:10096C00B4FC10E07B681B680B4A93420BD1094B1B
:10097C00DB69084A43F00203D361064BDB6903F0E1
:10098C000203BB60BB6800BF1037BD4680BD00BF13
:10099C00002C0140001002400004004080B588B0DB
:1009AC0000AF786007F1100300221A605A609A6059
:1009BC00DA607B681B68154A934223D1144BDB69C0
:1009CC00134A43F00403D361114BDB6903F00403B6
:1009DC00FB60FB680E4B9B690D4A43F00803936167
:1009EC000B4B9B6903F00803BB60BB68C0233B61E6
:1009FC0000237B610023BB6107F1100319460548F6
:100A0C0000F07EFC00BF2037BD4680BD00080040D2
:100A1C0000100240000C014080B588B000AF786037
:100A2C0007F1100300221A605A609A60DA607B6842
:100A3C001B680F4A934217D10E4B9B690D4A43F02A
:100A4C00080393610B4B9B6903F00803FB60FB6885
:100A5C0002233B6102237B610323FB6107F110033B
:100A6C001946054800F04CFC00BF2037BD4680BD40
:100A7C000004004000100240000C014080B500AFA3
:100A8C00114B124A1A60104B4FF4FA325A600E4B4B
:100A9C0000229A600C4B0022DA600B4B00221A6188
:100AAC00094B0C225A61084B00229A61064B00221A
:100ABC00DA61054802F002FB0346002B01D0FFF778
:100ACC008CFD00BF80BD00BF8401002000380140B8
:100ADC0080B588B000AF786007F1100300221A606F
:100AEC005A609A60DA607B681B681C4A934231D169
:100AFC001B4B9B691A4A43F480439361184B9B69C7
:100B0C0003F48043FB60FB68154B9B69144A43F06C
:100B1C0004039361124B9B6903F00403BB60BB6835
:100B2C004FF400733B6102237B610323FB6107F1EC
:100B3C00100319460B4800F0E3FB4FF480633B6154
:100B4C0000237B610023BB6107F1100319460548A4
:100B5C0000F0D6FB00BF2037BD4680BD00380140F9
:100B6C0000100240000801400C480D490D4A0023BA
:100B7C0002E0D458C4500433C4188C42F9D30A4A46
:100B8C000A4C002301E013600432A242FBD3FFF7AE
:100B9C00ABFD02F0E9FDFFF79FFC70470000002061
:100BAC000C000020804200080C000020D005002022
:100BBC00FEE7000080B500AF084B1B68074A43F006
:100BCC0010031360032000F059FB002000F008F81C
:100BDC00FFF70AFD0023184680BD00BF002002402D
:100BEC0080B582B000AF7860124B1A68124B1B783C
:100BFC0019464FF47A73B3FBF1F3B2FBF3F31846D7
:100C0C0000F071FB0346002B01D001230EE07B6842
:100C1C000F2B0AD8002279684FF0FF3000F039FB17
:100C2C00064A7B681360002300E00123184608374E
:100C3C00BD4680BD000000200800002004000020FC
:100C4C0080B400AF054B1B781A46054B1B68134448
:100C5C00034A136000BFBD4680BC704708000020EB
:100C6C00C801002080B400AF024B1B681846BD467B
:100C7C0080BC7047C801002080B584B000AF78609C
:100C8C00FFF7F0FFB8607B68FB60FB68B3F1FF3FD8
:100C9C0005D00A4B1B781A46FB681344FB6000BF57
:100CAC00FFF7E0FF0246BB68D31AFA689A42F7D8FE
:100CBC0000BF00BF1037BD4680BD00BF080000203C
:100CCC0080B586B000AF78600023FB7500233B61D4
:100CDC000023BB600023FB607B68002B01D1012348
:100CEC00BEE07B689B68002B7B689B6A002B09D15C
:100CFC007B680022DA627B68002283F82420786803
:100D0C00FFF782FA786800F0ABF90346FB757B6855
:100D1C009B6A03F01003002B40F09980FB7D002BA5
:100D2C0040F095807B689B6A23F4885323F0020380
:100D3C0043F002027B689A627B685A687B68DB69C5
:100D4C001A437B681B7B5B001343BA681343BB607D
:100D5C007B689B68B3F5807F03D07B689B68012B15
:100D6C0002D14FF4807300E000233A6913433B61D6
:100D7C007B681B7D012B19D17B681B7B002B09D158
:100D8C007B689B69013B5A033B69134343F4006343
:100D9C003B610BE07B689B6A43F020027B689A62A4
:100DAC007B68DB6A43F001027B68DA627B681B6854
:100DBC005B6823F469417B681B683A690A435A6093
:100DCC007B681B689A68284B13407A681268B9686C
:100DDC000B4393607B689B68B3F5807F03D07B6883
:100DEC009B68012B04D17B681B69013B1B05FB60D5
:100DFC007B681B68DB6A23F470017B681B68FA68EC
:100E0C000A43DA627B681B689A68184B1340BA680D
:100E1C009A420BD17B680022DA627B689B6A23F0D2
:100E2C00030343F001027B689A6218E07B689B6ABB
:100E3C0023F0120343F010027B689A627B68DB6A32
:100E4C0043F001027B68DA620123FB7507E07B68E3
:100E5C009B6A43F010027B689A620123FB75FB7D51
:100E6C0018461837BD4680BDFDF7E1FFFE0E1FFF8B
:100E7C0080B485B000AF786039600023FB73002329
:100E8C00BB607B6893F82430012B01D10223DCE09A
:100E9C007B68012283F824203B685B68062B1CD8F6
:100EAC007B681B68596B3B685A6813469B0013445C
:100EBC00053B1F2202FA03F3DB4319403B68186819
:100ECC003B685A6813469B001344053B00FA03F237
:100EDC007B681B680A435A633CE03B685B680C2BDD
:100EEC001CD87B681B68196B3B685A6813469B00BF
:100EFC001344233B1F2202FA03F3DB4319403B68E4
:100F0C0018683B685A6813469B001344233B00FA4D
:100F1C0003F27B681B680A431A631BE07B681B683F
:100F2C00D96A3B685A6813469B001344413B1F2205
:100F3C0002FA03F3DB4319403B6818683B685A68B4
:100F4C0013469B001344413B00FA03F27B681B6879
:100F5C000A43DA623B681B68092B1CD97B681B6847
:100F6C00D9683B681A6813465B0013441E3B072282
:100F7C0002FA03F3DB4319403B6898683B681A6834
:100F8C0013465B0013441E3B00FA03F27B681B689C
:100F9C000A43DA6019E07B681B6819693B681A68B8
:100FAC0013465B001344072202FA03F3DB43194098
:100FBC003B6898683B681A6813465B00134400FA58
:100FCC0003F27B681B680A431A613B681B68102B91
:100FDC0003D03B681B68112B32D17B681B681D4A00
:100FEC00934225D17B681B689B6803F40003002B9C
:100FFC0026D17B681B689A687B681B6842F40002E8
:10100C009A603B681B68102B1AD1134B1B68134A50
:10101C00A2FB03239A0C13469B0013445B00BB609A
:10102C0002E0BB68013BBB60BB68002BF9D107E059
:10103C007B689B6A43F020027B689A620123FB73F6
:10104C007B68002283F82420FB7B18461437BD46AE
:10105C0080BC7047002401400000002083DE1B434D
:10106C0080B584B000AF78600023FB607B681B68A0
:10107C009B6803F00103012B2ED17B681B689A68D7
:10108C007B681B6822F001029A60FFF7EBFDF860A9
:10109C001BE0FFF7E7FD0246FB68D31A022B14D9BD
:1010AC007B681B689B6803F00103012B0DD17B68E7
:1010BC009B6A43F010027B689A627B68DB6A43F0A0
:1010CC0001027B68DA62012307E07B681B689B687E
:1010DC0003F00103012BDCD0002318461037BD466A
:1010EC0080BD000080B485B000AF78607B6803F0F1
:1010FC000703FB600C4BDB68BB60BA684FF6FF0361
:10110C001340BB60FB681A02BB68134343F0BF6318
:10111C0043F40033BB60044ABB68D36000BF143790
:10112C00BD4680BC704700BF00ED00E080B400AF4E
:10113C00044BDB681B0A03F007031846BD4680BC52
:10114C00704700BF00ED00E080B483B000AF0346F1
:10115C00FB7197F90730002B0BDBFB7903F01F02B7
:10116C00064997F907305B09012000FA02F241F8B1
:10117C00232000BF0C37BD4680BC704700E100E067
:10118C0080B483B000AF03463960FB7197F9073028
:10119C00002B0ADB3B68DAB20C4997F907301201D5
:1011AC00D2B20B4483F800230AE03B68DAB2084958
:1011BC00FB7903F00F03043B1201D2B20B441A76F5
:1011CC0000BF0C37BD4680BC704700BF00E100E09B
:1011DC0000ED00E080B489B000AFF860B9607A60CF
:1011EC00FB6803F00703FB61FB69C3F10703042BE6
:1011FC0028BF0423BB61FB690433062B02D9FB69AE
:10120C00033B00E000237B614FF0FF32BB6902FA25
:10121C0003F3DA43BB681A407B699A404FF0FF3105
:10122C007B6901FA03F3D9437B680B4013431846DF
:10123C002437BD4680BC704780B582B000AF786063
:10124C007B68013BB3F1807F01D301230FE00A4A95
:10125C007B68013B53600F214FF0FF30FFF790FF8D
:10126C00054B00229A60044B07221A600023184693
:10127C000837BD4680BD00BF10E000E080B582B0ED
:10128C0000AF78607868FFF72DFF00BF0837BD46C8
:10129C0080BD80B586B000AF0346B9607A60FB7341
:1012AC0000237B61FFF742FF78617A68B96878693F
:1012BC00FFF790FF024697F90F3011461846FFF7DB
:1012CC005FFF00BF1837BD4680BD80B582B000AF50
:1012DC000346FB7197F907301846FFF735FF00BF3F
:1012EC000837BD4680BD80B582B000AF78607868A5
:1012FC00FFF7A2FF034618460837BD4680BD000025
:10130C0080B48BB000AF7860396000237B6200231F
:10131C003B6269E101227B6A02FA03F3FB613B68E1
:10132C001B68FA691340BB61BA69FB699A4240F0C9
:10133C0058813B685B689A4A93425ED0984A9342C4
:10134C0075D8984A934258D0964A93426FD8964A89
:10135C00934252D0944A934269D8944A93424CD0C7
:10136C00924A934263D8924A934246D0904A93420F
:10137C005DD8122B2AD8122B59D801A252F823F07F
:10138C0007140008E1130008F313000835140008D3
:10139C003B1400083B1400083B1400083B140008E5
:1013AC003B1400083B1400083B1400083B140008D5
:1013BC003B1400083B1400083B1400083B140008C5
:1013CC003B140008E9130008FD130008794A934206
:1013DC0013D02CE03B68DB683B6229E03B68DB68A0
:1013EC0004333B6224E03B68DB6808333B621FE05C
:1013FC003B68DB680C333B621AE03B689B68002B54
:10140C0002D104233B6213E03B689B68012B05D19E
:10141C0008233B627B68FA691A6109E008233B6286
:10142C007B68FA695A6103E000233B6200E000BF6D
:10143C00BB69FF2B01D87B6801E07B6804337B61BF
:10144C00BB69FF2B02D87B6A9B0002E07B6A083BDE
:10145C009B003B617B691A680F213B6901FA03F31E
:10146C00DB431A40396A3B6901FA03F31A437B697F
:10147C001A603B685B6803F08053002B00F0B1806E
:10148C004D4B9B694C4A43F0010393614A4B9B695A
:10149C0003F00103BB60BB68484A7B6A9B080233BC
:1014AC0052F82330FB607B6A03F003039B000F228E
:1014BC0002FA03F3DB43FA681340FB607B68404A93
:1014CC00934213D07B683F4A93420DD07B683E4ACF
:1014DC00934207D07B683D4A934201D1032306E037
:1014EC00042304E0022302E0012300E000237A6AD3
:1014FC0002F0030292009340FA681343FB602F49F9
:10150C007B6A9B080233FA6841F823203B685B68CE
:10151C0003F48033002B06D02D4B1A682C49BB6981
:10152C0013430B6006E02A4B1A68BB69DB4328495E
:10153C0013400B603B685B6803F40033002B06D050
:10154C00234B5A682249BB6913434B6006E0204B7E
:10155C005A68BB69DB431E4913404B603B685B68B0
:10156C0003F48013002B06D0194B9A681849BB69F9
:10157C0013438B6006E0164B9A68BB69DB43144936
:10158C0013408B603B685B6803F40013002B21D085
:10159C000F4BDA680E49BB691343CB6021E000BFE7
:1015AC000000321000003110000022100000211049
:1015BC000000121000001110001002400000014049
:1015CC0000080140000C01400010014000140140D3
:1015DC00000401400B4BDA68BB69DB43094913403B
:1015EC00CB607B6A01337B623B681A687B6A22FAA8
:1015FC0003F3002B7FF48EAE00BF00BF2C37BD462B
:10160C0080BC70470004014080B483B000AF7860A8
:10161C000B467B8013467B707B78002B03D07A883B
:10162C007B681A6103E07B881A047B681A6100BF2F
:10163C000C37BD4680BC704780B485B000AF786075
:10164C000B467B807B68DB68FB607A88FB68134009
:10165C001A04FB68D9437B880B401A437B681A61D8
:10166C0000BF1437BD4680BC7047000080B582B007
:10167C0000AF0346FB80084B5A69FB881340002BD4
:10168C0006D0054AFB885361FB88184600F006F823
:10169C0000BF0837BD4680BD0004014080B483B054
:1016AC0000AF0346FB8000BF0C37BD4680BC7047C3
:1016BC0080B584B000AF78607B68002B01D101232A
:1016CC002BE17B6893F83D30DBB2002B06D17B68B5
:1016DC00002283F83C207868FEF7AEFE7B6824225B
:1016EC0083F83D207B681B681A687B681B6822F0B6
:1016FC0001021A607B681B681A687B681B6842F4DD
:10170C0000421A607B681B681A687B681B6822F4AD
:10171C0000421A6000F0E4FCF8607B685B68814A68
:10172C00934207D8FB68804A934294BF012300235D
:10173C00DBB206E0FB687D4A934294BF0123002391
:10174C00DBB2002B01D00123E7E0FB68784AA2FB57
:10175C0003239B0CBB607B681B685B6823F03F0119
:10176C007B681B68BA680A435A607B681B681B6AF3
:10177C0023F03F017B685B686A4A934202D8BB68DE
:10178C00013309E0BB684FF4967202FB03F3694A1C
:10179C00A2FB03239B0901337A6812680B43136283
:1017AC007B681B68DB6923F44F4222F0FF027B68E5
:1017BC005B685C498B4219D8FB68591E7B685B6877
:1017CC005B00B1FBF3F3591C40F6FC730B40002B90
:1017DC000AD0FB68591E7B685B685B00B1FBF3F3B6
:1017EC000133C3F30B0351E004234FE07B689B6888
:1017FC00002B11D1FB68581E7B6859680B465B00A7
:10180C000B44B0FBF3F30133C3F30B03002B0CBFFE
:10181C0001230023DBB212E0FB68581E7B68596879
:10182C000B469B000B4499000B44B0FBF3F30133C4
:10183C00C3F30B03002B0CBF01230023DBB2002BE3
:10184C0001D0012322E07B689B68002B0ED1FB6842
:10185C00581E7B6859680B465B000B44B0FBF3F3D6
:10186C000133C3F30B0343F400430FE0FB68581E32
:10187C007B6859680B469B000B4499000B44B0FBEA
:10188C00F3F30133C3F30B0343F440437968096862
:10189C001343CB617B681B681B6823F0C0017B681A
:1018AC00DA697B681B6A1A437B681B680A431A60F7
:1018BC007B681B689B6823F4034323F0FF037A685F
:1018CC0011697A68D26811437A6812680B43936085
:1018DC007B681B68DB6823F0FF017B685A697B68B7
:1018EC009B691A437B681B680A43DA607B681B6838
:1018FC001A687B681B6842F001021A607B68002240
:10190C001A647B68202283F83D207B6800221A63CE
:10191C007B68002283F83E20002318461037BD4612
:10192C0080BD00BFA08601007F841E00FF083D0023
:10193C0083DE1B43D34D621080B586B000AF786058
:10194C007B68002B01D1012372E27B681B6803F0DA
:10195C000103002B00F08780924B5B6803F00C03B3
:10196C00042B0CD08F4B5B6803F00C03082B12D1AB
:10197C008C4B5B6803F48033B3F5803F0BD1894B00
:10198C001B6803F40033002B6CD07B685B68002B66
:10199C0068D101234CE27B685B68B3F5803F06D1CC
:1019AC00804B1B687F4A43F4803313602EE07B68C6
:1019BC005B68002B0CD17B4B1B687A4A23F4803379
:1019CC001360784B1B68774A23F4802313601DE067
:1019DC007B685B68B3F5A02F0CD1724B1B68714A06
:1019EC0043F4802313606F4B1B686E4A43F48033BF
:1019FC0013600BE06B4B1B686A4A23F48033136053
:101A0C00684B1B68674A23F4802313607B685B6810
:101A1C00002B13D0FFF726F9386108E0FFF722F905
:101A2C0002463B69D31A642B01D9032300E25D4BB8
:101A3C001B6803F40033002BF0D014E0FFF712F90D
:101A4C00386108E0FFF70EF902463B69D31A642BA4
:101A5C0001D90323ECE1534B1B6803F40033002B37
:101A6C00F0D100E000BF7B681B6803F00203002B81
:101A7C0063D04C4B5B6803F00C03002B0BD0494B31
:101A8C005B6803F00C03082B1CD1464B5B6803F41A
:101A9C008033002B16D1434B1B6803F00203002B41
:101AAC0005D07B681B69012B01D00123C0E13D4BA4
:101ABC001B6823F0F8027B685B69DB003949134330
:101ACC000B603AE07B681B69002B20D0364B01225F
:101ADC001A60FFF7C7F8386108E0FFF7C3F8024651
:101AEC003B69D31A022B01D90323A1E12D4B1B68AF
:101AFC0003F00203002BF0D02A4B1B6823F0F802F2
:101B0C007B685B69DB00274913430B6015E0264BB0
:101B1C0000221A60FFF7A6F8386108E0FFF7A2F878
:101B2C0002463B69D31A022B01D9032380E11D4BDA
:101B3C001B6803F00203002BF0D17B681B6803F0D9
:101B4C000803002B3AD07B689B69002B19D0174BEC
:101B5C0001221A60FFF786F8386108E0FFF782F877
:101B6C0002463B69D31A022B01D9032360E10D4BCA
:101B7C005B6A03F00203002BF0D0012000F0D8FACE
:101B8C001CE00A4B00221A60FFF76CF838610FE07A
:101B9C00FFF768F802463B69D31A022B08D90323D6
:101BAC0046E100BF00100240000042428004424265
:101BBC00924B5B6A03F00203002BE9D17B681B6834
:101BCC0003F00403002B00F0A6800023FB758B4B65
:101BDC00DB6903F08053002B0DD1884BDB69874AFE
:101BEC0043F08053D361854BDB6903F08053BB60BA
:101BFC00BB680123FB75824B1B6803F48073002BBD
:101C0C0018D17F4B1B687E4A43F480731360FFF737
:101C1C0029F8386108E0FFF725F802463B69D31A2A
:101C2C00642B01D9032303E1754B1B6803F4807308
:101C3C00002BF0D07B68DB68012B06D16F4B1B6A45
:101C4C006E4A43F0010313622DE07B68DB68002BC6
:101C5C000CD16A4B1B6A694A23F001031362674B70
:101C6C001B6A664A23F0040313621CE07B68DB6882
:101C7C00052B0CD1614B1B6A604A43F004031362C1
:101C8C005E4B1B6A5D4A43F0010313620BE05B4B36
:101C9C001B6A5A4A23F001031362584B1B6A574ABA
:101CAC0023F0040313627B68DB68002B15D0FEF76E
:101CBC00D9FF38610AE0FEF7D5FF02463B69D31A1B
:101CCC0041F28832934201D90323B1E04B4B1B6A9A
:101CDC0003F00203002BEED014E0FEF7C3FF3861D3
:101CEC000AE0FEF7BFFF02463B69D31A41F2883285
:101CFC00934201D903239BE0404B1B6A03F0020380
:101D0C00002BEED1FB7D012B05D13C4BDB693B4A13
:101D1C0023F08053D3617B68DB69002B00F0878054
:101D2C00364B5B6803F00C03082B61D07B68DB69D6
:101D3C00022B46D1334B00221A60FEF793FF386119
:101D4C0008E0FEF78FFF02463B69D31A022B01D93C
:101D5C0003236DE0294B1B6803F00073002BF0D1BB
:101D6C007B681B6AB3F5803F08D1244B5B6823F476
:101D7C0000327B689B68214913434B601F4B5B68A7
:101D8C0023F474127B68196A7B685B6A0B431B49EA
:101D9C0013434B601B4B01221A60FEF763FF386143
:101DAC0008E0FEF75FFF02463B69D31A022B01D90C
:101DBC0003233DE0114B1B6803F00073002BF0D0A4
:101DCC0035E0104B00221A60FEF74CFF386108E03A
:101DDC00FEF748FF02463B69D31A022B01D90323B5
:101DEC0026E0064B1B6803F00073002BF0D11EE0BD
:101DFC007B68DB69012B07D1012319E0001002403D
:101E0C0000700040600042420B4B5B68FB60FB685B
:101E1C0003F480327B681B6A9A4206D1FB6803F498
:101E2C0070127B685B6A9A4201D0012300E00023A8
:101E3C0018461837BD4680BD0010024080B584B0EE
:101E4C0000AF786039607B68002B01D10123D0E0B2
:101E5C006A4B1B6803F007033A689A4210D9674B28
:101E6C001B6823F0070265493B6813430B60634B07
:101E7C001B6803F007033A689A4201D00123B8E0CB
:101E8C007B681B6803F00203002B20D07B681B6867
:101E9C0003F00403002B05D0594B5B68584A43F4FC
:101EAC00E06353607B681B6803F00803002B05D0CC
:101EBC00534B5B68524A43F460535360504B5B681E
:101ECC0023F0F0027B689B684D4913434B607B68A1
:101EDC001B6803F00103002B40D07B685B68012B6F
:101EEC0007D1474B1B6803F40033002B15D101239A
:101EFC007FE07B685B68022B07D1414B1B6803F0CA
:101F0C000073002B09D1012373E03D4B1B6803F0D8
:101F1C000203002B01D101236BE0394B5B6823F0EA
:101F2C0003027B685B68364913434B60FEF79AFEED
:101F3C00F8600AE0FEF796FE0246FB68D31A41F2FF
:101F4C008832934201D9032353E02D4B5B6803F095
:101F5C000C027B685B689B009A42EBD1274B1B6899
:101F6C0003F007033A689A4210D2244B1B6823F003
:101F7C00070222493B6813430B60204B1B6803F09C
:101F8C0007033A689A4201D0012332E07B681B6850
:101F9C0003F00403002B08D0194B5B6823F4E062B8
:101FAC007B68DB68164913434B607B681B6803F046
:101FBC000803002B09D0124B5B6823F460527B683A
:101FCC001B69DB000E4913434B6000F021F80246FD
:101FDC000B4B5B681B0903F00F030A49CB5C22FA1D
:101FEC0003F3094A1360094B1B681846FEF7F8FD0A
:101FFC00002318461037BD4680BD00BF00200240AC
:10200C0000100240FC3700080000002004000020F3
:10201C0090B48AB000AF294B3C1D0FCB84E80F0065
:10202C0040F201233B800023FB610023BB610023B2
:10203C007B6200237B6100233B62214B5B68FB616D
:10204C00FB6903F00C03042B02D0082B03D02BE00C
:10205C001C4B3B622BE0FB699B0C03F00F032833FA
:10206C003B4413F8243C7B61FB6903F48033002B65
:10207C0012D0134B5B685B0C03F0010328333B4419
:10208C0013F8283CBB617B690E4A03FB02F2BB6967
:10209C00B2FBF3F37B6204E07B690B4A02FB03F3B4
:1020AC007B627B6A3B6202E0064B3B6200BF3B6A91
:1020BC0018462837BD4690BC704700BFE43700086F
:1020CC000010024000127A0000093D0080B400AFFD
:1020DC00024B1B681846BD4680BC704700000020B0
:1020EC0080B500AFFFF7F2FF0246054B5B681B0A99
:1020FC0003F007030349CB5C22FA03F3184680BDB7
:10210C00001002400C38000880B500AFFFF7DEFF6E
:10211C000246054B5B68DB0A03F007030349CB5C03
:10212C0022FA03F3184680BD001002400C38000858
:10213C0080B485B000AF78600A4B1B680A4AA2FBDA
:10214C0003235B0A7A6802FB03F3FB6000BFFB68A6
:10215C005A1EFA60002BF9D100BF00BF1437BD46E0
:10216C0080BC704700000020D34D621080B586B053
:10217C0000AF786000233B610023FB607B681B6829
:10218C0003F00103002B7DD00023FB754F4BDB6963
:10219C0003F08053002B0DD14C4BDB694B4A43F0C1
:1021AC008053D361494BDB6903F08053BB60BB6840
:1021BC000123FB75464B1B6803F48073002B18D16D
:1021CC00434B1B68424A43F480731360FEF74AFD8D
:1021DC00386108E0FEF746FD02463B69D31A642BD2
:1021EC0001D903236DE03A4B1B6803F48073002B79
:1021FC00F0D0364B1B6A03F44073FB60FB68002B7A
:10220C002ED07B685B6803F44073FA689A4227D03F
:10221C002E4B1B6A23F44073FB602E4B01221A6079
:10222C002C4B00221A60294AFB681362FB6803F0EE
:10223C000103002B14D0FEF715FD38610AE0FEF700
:10224C0011FD02463B69D31A41F28832934201D9FF
:10225C00032336E01D4B1B6A03F00203002BEED068
:10226C001A4B1B6A23F440727B685B681749134353
:10227C000B62FB7D012B05D1144BDB69134A23F058
:10228C008053D3617B681B6803F00203002B08D0DA
:10229C000E4B5B6823F440427B689B680B491343ED
:1022AC004B607B681B6803F01003002B08D0074BB6
:1022BC005B6823F480027B68DB68044913434B6042
:1022CC00002318461837BD4680BD00BF00100240E1
:1022DC00007000404004424280B582B000AF78608C
:1022EC007B68002B01D1012341E07B6893F83D30E2
:1022FC00DBB2002B06D17B68002283F83C20786887
:10230C00FEF712FB7B68022283F83D207B681A687B
:10231C007B6804331946104600F0E0FB7B68012211
:10232C0083F846207B68012283F83E207B680122DB
:10233C0083F83F207B68012283F840207B680122D0
:10234C0083F841207B68012283F842207B680122BC
:10235C0083F843207B68012283F844207B680122A8
:10236C0083F845207B68012283F83D200023184622
:10237C000837BD4680BD80B582B000AF78607B6801
:10238C00002B01D1012341E07B6893F83D30DBB297
:10239C00002B06D17B68002283F83C20786800F083
:1023AC0039F87B68022283F83D207B681A687B68C9
:1023BC0004331946104600F091FB7B68012283F828
:1023CC0046207B68012283F83E207B68012283F83B
:1023DC003F207B68012283F840207B68012283F830
:1023EC0041207B68012283F842207B68012283F81C
:1023FC0043207B68012283F844207B68012283F808
:10240C0045207B68012283F83D20002318460837BD
:10241C00BD4680BD80B483B000AF786000BF0C3780
:10242C00BD4680BC704780B586B000AF786039601F
:10243C007B68002B01D1012393E07B6893F83D303E
:10244C00DBB2002B06D17B68002283F83C20786835
:10245C00FEF7A4FA7B68022283F83D207B681B6898
:10246C009B687A68126823F4804323F00703936017
:10247C007B681A687B6804331946104600F02EFB03
:10248C007B681B689B687B617B681B689B693B61F5
:10249C007B681B681B6AFB603B681B687A6913438B
:1024AC007B613B6923F4407323F003033B613B687E
:1024BC009A683B689B691B0213433A6913433B615F
:1024CC003B6923F4406323F00C033B613B6923F429
:1024DC00704323F0F0033B613B68DA683B68DB69CF
:1024EC001B0213433A6913433B613B681B691A0196
:1024FC003B681B6A1B0313433A6913433B61FB683C
:10250C0023F02203FB603B685A683B685B691B0144
:10251C001343FA681343FB607B681B687A699A6003
:10252C007B681B683A699A617B681B68FA681A6257
:10253C007B68012283F846207B68012283F83E20C9
:10254C007B68012283F83F207B68012283F84220BC
:10255C007B68012283F843207B68012283F83D20AD
:10256C00002318461837BD4680BD80B582B000AF39
:10257C0078607B681B681B6903F00203022B22D175
:10258C007B681B68DB6803F00203022B1BD17B68A2
:10259C001B686FF002021A617B6801221A777B6854
:1025AC001B689B6903F00303002B03D0786800F0D1
:1025BC0079FA05E0786800F06CFA786800F07BFA3C
:1025CC007B6800221A777B681B681B6903F0040385
:1025DC00042B22D17B681B68DB6803F00403042BFB
:1025EC001BD17B681B686FF004021A617B680222A6
:1025FC001A777B681B689B6903F44073002B03D02C
:10260C00786800F04FFA05E0786800F042FA7868D4
:10261C0000F051FA7B6800221A777B681B681B69F3
:10262C0003F00803082B22D17B681B68DB6803F0DE
:10263C000803082B1BD17B681B686FF008021A611A
:10264C007B6804221A777B681B68DB6903F0030341
:10265C00002B03D0786800F025FA05E0786800F0CC
:10266C0018FA786800F027FA7B6800221A777B68E2
:10267C001B681B6903F01003102B22D17B681B68AD
:10268C00DB6803F01003102B1BD17B681B686FF009
:10269C0010021A617B6808221A777B681B68DB6959
:1026AC0003F44073002B03D0786800F0FBF905E0CD
:1026BC00786800F0EEF9786800F0FDF97B6800228C
:1026CC001A777B681B681B6903F00103012B0ED181
:1026DC007B681B68DB6803F00103012B07D17B6867
:1026EC001B686FF001021A61786800F0C9F97B6809
:1026FC001B681B6903F08003802B0ED17B681B6861
:10270C00DB6803F08003802B07D17B681B686FF0BC
:10271C0080021A61786800F0C8FC7B681B681B6932
:10272C0003F04003402B0ED17B681B68DB6803F081
:10273C004003402B07D17B681B686FF040021A6185
:10274C00786800F0C1F97B681B681B6903F02003F3
:10275C00202B0ED17B681B68DB6803F02003202B39
:10276C0007D17B681B686FF020021A61786800F053
:10277C0093FC00BF0837BD4680BD000080B584B017
:10278C0000AFF860B9607A60FB6893F83C30012BBD
:10279C0001D10223ACE0FB68012283F83C207B686A
:1027AC000C2B00F29F8001A252F823F0ED270008B9
:1027BC00F1280008F1280008F12800082D2800084D
:1027CC00F1280008F1280008F12800086F280008FB
:1027DC00F1280008F1280008F1280008AF280008AB
:1027EC00FB681B68B968184600F0DAF9FB681B68CF
:1027FC009A69FB681B6842F008029A61FB681B68C7
:10280C009A69FB681B6822F004029A61FB681B68DA
:10281C009969BB681A69FB681B680A439A6162E094
:10282C00FB681B68B968184600F020FAFB681B6847
:10283C009A69FB681B6842F400629A61FB681B682A
:10284C009A69FB681B6822F480629A61FB681B68BA
:10285C009969BB681B691A02FB681B680A439A6179
:10286C0041E0FB681B68B968184600F069FAFB6820
:10287C001B68DA69FB681B6842F00802DA61FB68C6
:10288C001B68DA69FB681B6822F00402DA61FB68DA
:10289C001B68D969BB681A69FB681B680A43DA6153
:1028AC0021E0FB681B68B968184600F0B3FAFB68B6
:1028BC001B68DA69FB681B6842F40062DA61FB682A
:1028CC001B68DA69FB681B6822F48062DA61FB68BA
:1028DC001B68D969BB681B691A02FB681B680A4331
:1028EC00DA6100E000BFFB68002283F83C20002383
:1028FC0018461037BD4680BD80B584B000AF7860F7
:10290C0039607B6893F83C30012B01D10223B3E092
:10291C007B68012283F83C207B68022283F83D20EF
:10292C007B681B689B68FB60FB6823F07703FB608C
:10293C00FB6823F47F43FB607B681B68FA689A6032
:10294C003B681B68B3F5005F3ED0B3F5005F00F247
:10295C008780B3F5805F00F08580B3F5805F7FD80A
:10296C00702B1AD0702B7BD8602B50D0602B77D863
:10297C00502B3CD0502B73D8402B58D0402B6FD8B9
:10298C00302B64D0302B6BD8202B60D0202B67D809
:10299C00002B5CD0102B5AD062E07B6818683B6827
:1029AC0099683B685A683B68DB6800F0F8FA7B680A
:1029BC001B689B68FB60FB6843F07703FB607B68DC
:1029CC001B68FA689A604EE07B6818683B689968E7
:1029DC003B685A683B68DB6800F0E1FA7B681B686F
:1029EC009A687B681B6842F480429A603BE07B6883
:1029FC0018683B6859683B68DB681A4600F058FA5F
:102A0C007B681B685021184600F0AFFA2BE07B68FE
:102A1C0018683B6859683B68DB681A4600F076FA20
:102A2C007B681B686021184600F09FFA1BE07B68EE
:102A3C0018683B6859683B68DB681A4600F038FA3E
:102A4C007B681B684021184600F08FFA0BE07B680E
:102A5C001A683B681B681946104600F086FA02E0BB
:102A6C0000BF00E000BF7B68012283F83D207B683B
:102A7C00002283F83C20002318461037BD4680BD49
:102A8C0080B483B000AF786000BF0C37BD4680BC0B
:102A9C00704780B483B000AF786000BF0C37BD4680
:102AAC0080BC704780B483B000AF786000BF0C3737
:102ABC00BD4680BC704780B483B000AF786000BF67
:102ACC000C37BD4680BC704780B483B000AF7860D3
:102ADC0000BF0C37BD4680BC7047000080B485B089
:102AEC0000AF786039607B681B68FB607B68294AA3
:102AFC0093420BD07B68B3F1804F07D07B68264A9A
:102B0C00934203D07B68254A934208D1FB6823F09B
:102B1C007003FB603B685B68FA681343FB607B687F
:102B2C001C4A93420BD07B68B3F1804F07D07B6873
:102B3C00194A934203D07B68184A934208D1FB6828
:102B4C0023F44073FB603B68DB68FA681343FB605B
:102B5C00FB6823F080023B685B691343FB607B6876
:102B6C00FA681A603B689A687B68DA623B681A6894
:102B7C007B689A627B68074A934203D13B681A6967
:102B8C007B681A637B6801225A6100BF1437BD460B
:102B9C0080BC7047002C014000040040000800403D
:102BAC0080B487B000AF786039607B681B6A23F013
:102BBC0001027B681A627B681B6A7B617B685B68BD
:102BCC003B617B689B69FB60FB6823F07003FB60D7
:102BDC00FB6823F00303FB603B681B68FA68134334
:102BEC00FB607B6923F002037B613B689B687A691D
:102BFC0013437B617B681C4A93420CD17B6923F0A5
:102C0C0008037B613B68DB687A6913437B617B69F2
:102C1C0023F004037B617B68134A934211D13B6917
:102C2C0023F480733B613B6923F400733B613B6885
:102C3C005B693A6913433B613B689B693A6913438F
:102C4C003B617B683A695A607B68FA689A613B68B9
:102C5C005A687B685A637B687A691A6200BF1C37B2
:102C6C00BD4680BC704700BF002C014080B487B0CB
:102C7C0000AF786039607B681B6A23F010027B68B8
:102C8C001A627B681B6A7B617B685B683B617B6853
:102C9C009B69FB60FB6823F4E043FB60FB6823F457
:102CAC004073FB603B681B681B02FA681343FB60B4
:102CBC007B6923F020037B613B689B681B017A696D
:102CCC0013437B617B681D4A93420DD17B6923F0D2
:102CDC0080037B613B68DB681B017A6913437B6172
:102CEC007B6923F040037B617B68144A934213D1C8
:102CFC003B6923F480633B613B6923F400633B61D4
:102D0C003B685B699B003A6913433B613B689B6979
:102D1C009B003A6913433B617B683A695A607B6854
:102D2C00FA689A613B685A687B689A637B687A692F
:102D3C001A6200BF1C37BD4680BC7047002C014096
:102D4C0080B487B000AF786039607B681B6A23F46D
:102D5C0080727B681A627B681B6A7B617B685B682C
:102D6C003B617B68DB69FB60FB6823F07003FB60F5
:102D7C00FB6823F00303FB603B681B68FA68134392
:102D8C00FB607B6923F400737B613B689B681B02CF
:102D9C007A6913437B617B681D4A93420DD17B6931
:102DAC0023F400637B613B68DB681B027A69134385
:102DBC007B617B6923F480637B617B68144A93425B
:102DCC0013D13B6923F480533B613B6923F40053DB
:102DDC003B613B685B691B013A6913433B613B6890
:102DEC009B691B013A6913433B617B683A695A60E2
:102DFC007B68FA68DA613B685A687B68DA637B68DF
:102E0C007A691A6200BF1C37BD4680BC704700BF90
:102E1C00002C014080B487B000AF786039607B68CB
:102E2C001B6A23F480527B681A627B681B6A3B61C5
:102E3C007B685B687B617B68DB69FB60FB6823F408
:102E4C00E043FB60FB6823F44073FB603B681B684A
:102E5C001B02FA681343FB603B6923F400533B618C
:102E6C003B689B681B033A6913433B617B680F4AC1
:102E7C00934209D17B6923F480437B613B685B6996
:102E8C009B017A6913437B617B687A695A607B6822
:102E9C00FA68DA613B685A687B681A647B683A693D
:102EAC001A6200BF1C37BD4680BC7047002C014025
:102EBC0080B487B000AFF860B9607A60FB681B6AB9
:102ECC007B61FB681B6A23F00102FB681A62FB68DA
:102EDC009B693B613B6923F0F0033B617B681B0101
:102EEC003A6913433B617B6923F00A037B617A697E
:102EFC00BB6813437B61FB683A699A61FB687A692A
:102F0C001A6200BF1C37BD4680BC704780B487B0C6
:102F1C0000AFF860B9607A60FB681B6A23F010029E
:102F2C00FB681A62FB689B697B61FB681B6A3B61EF
:102F3C007B6923F470437B617B681B037A691343C1
:102F4C007B613B6923F0A0033B61BB681B013A69C1
:102F5C0013433B61FB687A699A61FB683A691A62B0
:102F6C0000BF1C37BD4680BC704780B485B000AF35
:102F7C00786039607B689B68FB60FB6823F07003AA
:102F8C00FB603A68FB68134343F00703FB607B6804
:102F9C00FA689A6000BF1437BD4680BC704780B495
:102FAC0087B000AFF860B9607A603B60FB689B68E3
:102FBC007B617B6923F47F437B613B681A027B68EE
:102FCC001A43BB6813437A6913437B61FB687A69C4
:102FDC009A6000BF1C37BD4680BC704780B485B07A
:102FEC0000AF786039607B6893F83C30012B01D1DD
:102FFC00022346E07B68012283F83C207B68022296
:10300C0083F83D207B681B685B68FB607B681B68F2
:10301C009B68BB60FB6823F07003FB603B681B681C
:10302C00FA681343FB607B681B68FA685A607B681C
:10303C001B68164A93420ED07B681B68B3F1804F15
:10304C0009D07B681B68124A934204D07B681B68CA
:10305C00104A93420CD1BB6823F08003BB603B68E1
:10306C005B68BA681343BB607B681B68BA689A607C
:10307C007B68012283F83D207B68002283F83C208A
:10308C00002318461437BD4680BC7047002C014005
:10309C00000400400008004080B483B000AF7860AA
:1030AC0000BF0C37BD4680BC704780B483B000AF06
:1030BC00786000BF0C37BD4680BC704780B582B0CD
:1030CC0000AF78607B68002B01D101233FE07B6867
:1030DC0093F83D30DBB2002B06D17B68002283F8DD
:1030EC003C207868FDF7F4FC7B68242283F83D20B3
:1030FC007B681B68DA687B681B6822F40052DA6014
:10310C00786800F029F87B681B681A697B681B6873
:10311C0022F490421A617B681B685A697B681B68B1
:10312C0022F02A025A617B681B68DA687B681B688C
:10313C0042F40052DA607B6800221A647B68202219
:10314C0083F83D207B68202283F83E20002318461C
:10315C000837BD4680BD000080B584B000AF7860F4
:10316C007B681B681B6923F440517B68DA687B68B9
:10317C001B680A431A617B689A687B681B691A434F
:10318C007B685B691343BB607B681B68DB6823F45B
:10319C00B05323F00C037A681268B9680B43D36000
:1031AC007B681B685B6923F440717B689A697B6858
:1031BC001B680A435A617B681B682C4A934203D1F3
:1031CC00FEF7A2FFF86002E0FEF78AFFF860FA68EB
:1031DC0013469B0013449A001A447B685B689B005F
:1031EC00B2FBF3F3224AA2FB03235B091901FA6831
:1031FC0013469B0013449A001A447B685B689B003F
:10320C00B2FBF3F21A4BA3FB02035B09642000FB35
:10321C0003F3D31A1B013233154AA2FB03235B09B8
:10322C0003F0F0031944FA6813469B0013449A0008
:10323C001A447B685B689B00B2FBF3F20C4BA3FB5C
:10324C0002035B09642000FB03F3D31A1B01323326
:10325C00074AA2FB03235B0903F00F027B681B6880
:10326C000A449A6000BF1037BD4680BD003801404B
:10327C001F85EB5180B582B000AF0023FB7126E0B7
:10328C00FB79503BDBB20021184600F02BF80021F3
:10329C00002000F027F80021102000F023F8002374
:1032AC00BB710DE0BA79FB790D49D2000A44134485
:1032BC001B780121184600F015F8BB790133BB715E
:1032CC0097F90630002BEDDAFB790133FB71FB79B2
:1032DC00072BD5D900BF00BF0837BD4680BD00BF46
:1032EC00CC01002080B485B000AF03460A46FB71C8
:1032FC001346BB71BB79002B03D0164B01221A600D
:10330C0002E0144B00221A600023FB7316E0124BF0
:10331C0000221A6097F90730002B03DA0F4B0122B9
:10332C001A6002E00D4B00221A600B4B01221A604E
:10333C00FB795B00FB71FB7B0133FB73FB7B072B86
:10334C00E5D9044B01221A6000BF1437BD4680BC7E
:10335C00704700BFBC0121429481214290812142DF
:10336C0080B582B000AF0023FB7114E00023BB7169
:10337C000AE0BA79FB790C49D2000A4413440022C2
:10338C001A70BB790133BB7197F90630002BF0DA58
:10339C00FB790133FB71FB79072BE7D9FFF76AFF48
:1033AC0000BF0837BD4680BDCC01002080B485B07D
:1033BC0000AF0346FB710B46BB7113467B710023B8
:1033CC00FB7397F90730002B41DBBB793F2B3ED8C1
:1033DC00BB79DB08DBB2C3F10703BB73BB7903F02A
:1033EC0007037B737B7BC3F10703012202FA03F310
:1033FC00FB737B79002B12D0FA79BB7B1649D20078
:10340C000A4413441878FA79BB7BF97B0143C8B2A0
:10341C001149D2000A44134402461A7018E0FA7992
:10342C00BB7B0D49D2000A4413441B785AB297F95E
:10343C000F30DB435BB2134059B2FA79BB7BC8B295
:10344C000549D2000A44134402461A7000E000BF3A
:10345C001437BD4680BC7047CC01002090B585B0B8
:10346C0000AF0446084611461A462346FB71034634
:10347C00BB710B467B7113463B71BB793B737B79FC
:10348C00203B7B710023BB734DE03B790C2B0BD1A4
:10349C007A79B97B284813465B0013449B0003449C
:1034AC000B441B78FB7307E07A79BB7B2349120131
:1034BC000A4413441B78FB7300237B732DE097F9AC
:1034CC000F30002B07DA97F82020B979FB791846D2
:1034DC00FFF76CFF0CE097F82030002B0CBF01239A
:1034EC000023DBB21A46B979FB791846FFF75EFF69
:1034FC00FB7B5B00FB73BB790133BB71BA793B7B04
:10350C00D21A3B799A4205D13B7BBB71FB790133D3
:10351C00FB7105E07B7B01337B737B7B072BCED967
:10352C00BB7B0133BB73BA7B3B799A42ADD300BFF3
:10353C0000BF1437BD4690BD14380008883C000805
:10354C0080B584B002AF03463A60FB710B46BB7189
:10355C001FE0FB797A2B04D90023FB71BB79103364
:10356C00BB71BB793A2B05D90023FB71FB79BB717D
:10357C00FFF7F6FE3B681A78B979F87901230093C6
:10358C000C23FFF76BFFFB790833FB713B680133AE
:10359C003B603B681B78002BDBD100BF00BF0837BA
:1035AC00BD4680BD80B500AF4C4B9B694B4A43F088
:1035BC00080393614A4B1B68494A23F47F0323F4A5
:1035CC0070431360464B1B68454A43F4081343F49D
:1035DC0000531360414B9B69404A43F004039361D1
:1035EC00404B5B683F4A23F0704353603D4B5B6834
:1035FC003C4A43F0005353603B4B00221A6064205A
:10360C0000F074F8384B01221A600021AE20FFF74D
:10361C0069FE0021D520FFF765FE00215020FFF741
:10362C0061FE0021A820FFF75DFE00213F20FFF77F
:10363C0059FE0021D320FFF755FE00210020FFF793
:10364C0051FE00214020FFF74DFE00218D20FFF799
:10365C0049FE00211420FFF745FE00212020FFF732
:10366C0041FE00210220FFF73DFE0021A120FFF7C3
:10367C0039FE0021C020FFF735FE0021DA20FFF7CC
:10368C0031FE00211220FFF72DFE00218120FFF7D3
:10369C0029FE0021EF20FFF725FE0021D920FFF79E
:1036AC0021FE0021F120FFF71DFE0021DB20FFF79A
:1036BC0019FE00213020FFF715FE0021A420FFF792
:1036CC0011FE0021A620FFF70DFE0021AF20FFF711
:1036DC0009FEFFF745FE00BF80BD00BF0010024091
:1036EC00000C0140000801408C81214280B485B05F
:1036FC0000AF0346FB80FB88124A12881146124A1F
:10370C0001FB03F35360104B00229A600E4B012215
:10371C001A600D4B1B68FB60FB6803F00103002B68
:10372C0004D0FB6803F48033002BF2D0064B00224C
:10373C001A60054B00229A6000BF1437BD4680BC4E
:10374C00704700BFCC05002010E000E080B500AF52
:10375C00044A00210020FFF7F3FEFFF78BFD00BFAA
:10376C0080BD00BFF437000870B500260C4D0D4C21
:10377C00641BA410A64209D100F022F800260A4DC1
:10378C000A4C641BA410A64205D170BD55F8043B2D
:10379C0098470136EEE755F8043B98470136F2E7B7
:1037AC007842000878420008784200087C42000801
:1037BC0003460244934200D1704703F8011BF9E71A
:1037CC00F8B500BFF8BC08BC9E467047F8B500BF02
:0837DC00F8BC08BC9E467047D2
:1037E40002030405060708090A0B0C0D0E0F10103E
:1037F400422D4B50000000000000000000000000BB
:103804000102030406070809000000000102030482
:1038140000000000000000000000000000000000A4
:103824003F40000000000000000030004000300075
:103834004000000009000BC03D000BC03D00090022
:1038440018C024407FE0224031800000180024C0CA
:103854001B000D803240018003801C4027401C80E7
:10386400074000401000600000000000000000005D
:103874000000000000001F80204040200000402085
:1038840020401F8000000000090006001F80060081
:1038940009000000040004003F800400040000004C
:1038A400001000600000000000000000040004009C
:1038B40004000400040000000000004000000000B8
:1038C40000000000002001C0060038004000000095
:1038D4001F802040204020401F8000000000104036
:1038E4003FC000400000000018C021402240244096
:1038F4001840000010802040244024401B80000019
:1039040002000D0011003FC0014000003C80244033
:1039140024402440238000001F802440244034405D
:10392400038000003000200027C038002000000081
:103934001B802440244024401B8000001C0022C023
:10394400224022401F8000000000000008400000C8
:1039540000000000000000000460000000000000FF
:10396400000004000A001100208040400900090002
:1039740009000900090000000000404020801100F7
:103984000A0004001800200023402400180000004E
:103994001F802040274029401F400000004007C0EE
:1039A40039000F0001C0004020403FC024402440A3
:1039B4001B8000001F8020402040204030800000F9
:1039C40020403FC0204020401F80000020403FC0D6
:1039D40024402E4030C0000020403FC024402E0030
:1039E400300000000F00108020402240338002008D
:1039F40020403FC0040004003FC02040204020403D
:103A04003FC02040204000000060202020203FC014
:103A14002000200020403FC024400B0030C0204044
:103A240020403FC020400040004000C03FC03C0058
:103A340003C03C003FC0000020403FC00C402300B6
:103A44003FC020001F802040204020401F800000F5
:103A540020403FC024402400180000001F80214063
:103A6400214020E01FA0000020403FC02440260049
:103A740019C0004018C02440244022403180000076
:103A8400300020403FC020403000000020003F8034
:103A9400004000403F80200020003E0001C007009D
:103AA40038002000380007C03C0007C03800000080
:103AB400204039C0060039C02040000020003840B2
:103AC40007C0384020000000304021C02640384064
:103AD40020C00000000000007FE0402040200000E3
:103AE400000070000C000380004000000000402033
:103AF40040207FE000000000000020004000200083
:103B04000000000000100010001000100010001051
:103B140000000000400000000000000000000280DF
:103B24000540054003C0004020003FC0044004405D
:103B340003800000000003800440044006400000AD
:103B440000000380044024403FC000400000038084
:103B54000540054003400000000004401FC024400D
:103B640024402000000002E00550055006500420C7
:103B740020403FC00440040003C000400000044053
:103B840027C000400000000000100010041027E0CF
:103B94000000000020403FC00140070004C0044072
:103BA400204020403FC000400040000007C0040007
:103BB40007C0040003C00000044007C00440040020
:103BC40003C0004000000380044004400380000060
:103BD400041007F004500440038000000000038038
:103BE4000440045007F00010044007C002400400E1
:103BF40004000000000006400540054004C0000029
:103C0400000004001F8004400040000004000780FE
:103C14000040044007C000400400070004C00180C5
:103C240006000400060001C0070001C006000000F1
:103C3400044006C0010006C0044000000410071040
:103C440004E00180060004000000044005C00640B2
:103C5400044000000000000004007BE0402000005D
:103C6400000000000000FFF0000000000000402001
:103C74007BE00400000000004000800040002000C1
:103C840020004000000000000000000000000000D0
:103C9400000000000000000000001FCC000C000029
:103CA4000000000000000800300060000800300040
:103CB40060000000022003FC1E20022003FC1E20E2
:103CC4000220000000000E1811043FFF10840C783D
:103CD400000000000F0010840F3800C0077818841B
:103CE4000078000000780F8410C411240E9800E4BA
:103CF4000084000808006800700000000000000054
:103D04000000000000000000000007E01818200474
:103D140040020000000040022004181807E00000E0
:103D2400000000000240024001800FF001800240C8
:103D3400024000000080008000800FF800800080B6
:103D4400008000000001000D000E000000000000D3
:103D540000000000000000800080008000800080DF
:103D6400008000800000000C000C00000000000037
:103D7400000000000000000600180060018006003A
:103D840018002000000007F00808100410040808B8
:103D940007F000000000080408041FFC00040004ED
:103DA4000000000000000E0C1014102410441184B4
:103DB4000E0C000000000C181004110411041288E9
:103DC4000C700000000000E00320042408241FFC01
:103DD4000024000000001F981084110411041088AE
:103DE40010700000000007F00888110411041888FE
:103DF4000070000000001C00100010FC13001C00E8
:103E04001000000000000E38114410841084114486
:103E14000E38000000000700088C10441044088885
:103E240007F00000000000000000030C030C000079
:103E34000000000000000000000101060000000076
:103E44000000000000000080014002200410080867
:103E5400100400000220022002200220022002207E
:103E64000220000000001004080804100220014091
:103E74000080000000000E001200100C106C108076
:103E84000F00000003E00C1813E4142417C40828DE
:103E940007D000000004003C03C41C40074000E4B9
:103EA400001C000410041FFC1104110411040E88EA
:103EB4000070000003E00C18100410041004100833
:103EC4001C10000010041FFC100410041004080847
:103ED40007F0000010041FFC1104110417C410049F
:103EE4000818000010041FFC1104110017C0100072
:103EF4000800000003E00C181004100410441C789F
:103F04000040000010041FFC108400800080108416
:103F14001FFC10040000100410041FFC1004100403
:103F24000000000000030001100110011FFE10003A
:103F34001000000010041FFC110403801464181CFA
:103F44001004000010041FFC10040004000400040A
:103F5400000C000010041FFC1F0000FC1F001FFCCD
:103F64001004000010041FFC0C04030000E01018EF
:103F74001FFC100007F008081004100410040808BF
:103F840007F0000010041FFC1084108010801080C3
:103F94000F00000007F0081810241024101C080A51
:103FA40007F2000010041FFC1104110011C01130AD
:103FB4000E0C000400000E1C110410841084104424
:103FC4001C3800001800100010041FFC100410001E
:103FD4001800000010001FF810040004000410046E
:103FE4001FF8100010001E0011E0001C0070138068
:103FF4001C0010001FC0103C00E01F0000E0103C3B
:104004001FC000001004180C163401C001C016347F
:10401400180C100410001C00130400FC13041C00F2
:10402400100000000804101C1064108413041C0405
:10403400101800000000000000007FFE4002400253
:1040440040020000000030000C0003800060001CEF
:104054000003000000004002400240027FFE000016
:10406400000000000000000020004000400040006C
:104074002000000000010001000100010001000116
:10408400000100010000400040002000000000008A
:104094000000000000000098012401440144014490
:1040A40000FC000410001FFC0088010401040088C7
:1040B4000070000000000070008801040104010485
:1040C4000088000000000070008801040104110849
:1040D4001FFC0004000000F80144014401440144B1
:1040E40000C800000000010401040FFC11041104C5
:1040F40011001800000000D601290129012901C975
:104104000106000010041FFC0084010001000104EA
:1041140000FC000400000104190419FC000400045C
:10412400000000000000000300010101190119FE54
:104134000000000010041FFC0024004001B4010C26
:10414400010400000000100410041FFC000400041B
:1041540000000000010401FC0104010001FC010451
:10416400010000FC010401FC0084010001000104C1
:1041740000FC0004000000F801040104010401042F
:1041840000F80000010101FF00850104010400881A
:1041940000700000000000700088010401040105A3
:1041A40001FF00010104010401FC00840104010079
:1041B40001800000000000CC01240124012401241A
:1041C4000198000000000100010007F80104010447
:1041D40000000000010001F80004000400040108CC
:1041E40001FC0004010001800170000C001001605A
:1041F4000180010001F0010C003001C00030010C0D
:1042040001F0010000000104018C00740170018CB4
:1042140001040000010101810171000E0018016018
:104224000180010000000184010C01340144018477
:10423400010C0000000000000000000001003EFC32
:10424400400240020000000000000000FFFF0000E8
:10425400000000000000400240023EFC010000009B
:10426400000000000000600080008000400040006A
:044274002000200006
:0442780075010008C4
:04427C004D010008E8
:0C4280000024F400100000000100000009
:0400000508000B756F
:00000001FF
