:020000040800F2
:10000000FF4F0020594D0008A14D0008A14D0008E8
:10001000A14D0008A14D0008A14D000800000000FE
:10002000000000000000000000000000A14D0008DA
:10003000A14D000800000000A14D0008A14D0008DE
:10004000A14D0008A14D0008A14D0008A14D0008D8
:10005000A14D0008A14D0008A14D0008A14D0008C8
:10006000A14D0008A14D0008A14D0008A14D0008B8
:10007000A14D0008A14D0008A14D0008A14D0008A8
:10008000A14D0008A14D0008A14D0008A14D000898
:10009000A14D0008A14D0008A14D0008A5220008AF
:1000A000A14D0008F9070008A14D0008A14D000866
:1000B0008D190008A14D00086D190008A14D000818
:1000C000A14D0008A14D0008A14D0008A14D000858
:1000D000A14D0008A14D0008A14D0008CD1A00084F
:1000E00025230008A14D0008A14D000800000000D4
:1000F0000000000000000000000000000000000000
:0C01000000000000000000005FF808F1A3
:1001100080B400AF00BFBD4680BC704780B500AF63
:10012000842000F08DFA482000F0E0FA022000F070
:1001300061FA012000F05EFA4FF47A7000F02AFBB9
:100140004FF47A7000F026FB01F096FA02F084F882
:1001500003F0FCF84FF4FA31482000F057F8002182
:1001600041F61F4003F088FB01F05CFB03F09EFAB0
:1001700003F092F941F61F41312002F0E3FB054BF9
:1001800001221A7000F09AFD00BF024B1B78002B71
:10019000FBD1F4E7B900002080B483B000AF7860F1
:1001A00000BF18460C37BD4680BC704780B483B092
:1001B00000AF7860396000BF074B1B6803F0400355
:1001C000002BF9D07B68DAB2034B5A607B68184683
:1001D0000C37BD4680BC70470038014080B483B006
:1001E00000AF0346FB71084AFB79536000BF064B22
:1001F0001B6803F04003002BF9D000BF00BF0C3791
:10020000BD4680BC704700BF0038014090B585B046
:1002100000AF786039607B68334A02FB03F318460D
:1002200004F036FB04463B681B01184604F030FB23
:1002300003461946204604F037FC0346FB60F86885
:1002400004F06AFD03467B817B89184604F024FB99
:1002500003461946F86804F069FA03464FF08341F3
:10026000184604F06DFB0346184604F055FD03469E
:100270003B817B891B017B817A893B8913447B818C
:100280001A4B9B69194A43F004039361174B9B690E
:10029000164A43F480439361154B5B68144A23F478
:1002A0007F635360124B5B68114A43F40B635360E6
:1002B0000E4BDB680D4A43F48043D3600B4BDB6885
:1002C0000A4A23F48043D3600A4A7B899360094B2E
:1002D000DB68084A43F4005343F00C03D36000BFCB
:1002E0001437BD4690BD00BF40420F0000100240D1
:1002F000000801400038014080B483B000AF78604E
:1003000039603B6823F0604323F07F0304497A6837
:1003100013438B6000BF0C37BD4680BC704700BFE5
:1003200000ED00E080B485B000AF0346FB71FB79BF
:10033000DB4303F00703FB60FB681B02FB600D4B14
:10034000DB68BB60BA684FF6FF031340BB60BB6855
:1003500043F0BF6343F40033BB60BA68FB681343E8
:10036000BB60044ABB68D36000BF1437BD4680BC85
:10037000704700BF00ED00E090B585B000AF0446C7
:10038000084611461A462346FB710346BB710B46CD
:100390007B7113463B713B791846FFF7C3FFFA792F
:1003A0003B79C3F1040302FA03F3FB60BA793B79AA
:1003B0000F2141FA03F313401A46FB681343FB6015
:1003C000FB6803F00F03FB60134A7B795B09D8B22B
:1003D000034652F823307A7902F01F02012101FA14
:1003E00002F214460C4A0146234342F821300A4ADD
:1003F0007B79134493F80033D9B2FB68DBB21B015D
:10040000DAB205487B790A43D2B2034483F8002369
:1004100000BF1437BD4690BD00E100E080B485B058
:1004200000AF0346FB710B46BB7113467B71BB7972
:100430009B08FB73BB7903F00303DBB29B00BB7328
:10044000294B9B69284A43F001039361274AFB7BB0
:10045000023352F82320BB7B0F2101FA03F3DB4365
:1004600018462249FB7B0240023341F823201F4AF1
:10047000FB7B023352F82320F979BB7B01FA03F3AB
:1004800018461A49FB7B0243023341F82320184BDC
:100490001B68BA79012101FA02F21146144A0B4392
:1004A00013607B7903F00103002B09D0104BDB684C
:1004B000BA79012101FA02F211460D4A0B43D360C9
:1004C0007B7903F00203002B09D0094B9B68BA79B2
:1004D000012101FA02F21146054A0B43936000BF65
:1004E0001437BD4680BC7047001002400000014038
:1004F0000004014080B500AF1C4B00221A611B4B69
:100500000022DA60194B14225A61184B00229A61BA
:10051000164B0022DA61154B1B68144A43F00103A5
:100520001360124B5A681149114B13404B600F4B2B
:100530001B680E4A23F0847323F4803313600B4B43
:100540001B680A4A23F480231360084B5B68074A40
:1005500023F4FE035360054B00229A6000214FF004
:100560000060FFF7C9FE00BF80BD00BF0010024061
:100570000000FFF830BF00BF72B600BF62B600BF18
:1005800080F30888704700BF80B500AF0F4B1B6930
:100590000E4A43F0040313610D4BDB690C4A43F030
:1005A0008053D3610B4B5B680A4A43F480735360FA
:1005B000084B1B68074A43F004031360054B1B6894
:1005C000044A43F002031360FFF7D4FF00ED00E09C
:1005D000001002400070004080B400AF034B044A9A
:1005E000DA6000BFBD4680BC704700BF00ED00E090
:1005F0000400FA0580B485B000AF0346FB71FB79B7
:10060000FB60FB685B06FB600B4B9B690A4A43F08F
:1006100001039361094B5B68084A23F0E063536070
:10062000064B5A680549FB6813434B6000BF1437FB
:10063000BD4680BC704700BF001002400000014072
:1006400080B584B000AF0346FB710023FB73FFF756
:1006500051FF244B1B68234A43F48033136000BFCF
:10066000204B1B685B0C002BFAD01E4B4FF48062B2
:100670005A60FB79023BFB711A4B5A68FB799B0469
:10068000184913434B60174B5B68164A43F4803399
:100690005360154B1B68144A43F032031360114B2F
:1006A0001B68104A43F08073136000BF0D4B1B683A
:1006B0005B0E002BFAD00B4B5B680A4A43F0020337
:1006C000536007E0074B5B689B08FB73FB7B03F001
:1006D0000303FB73FB7B022BF4D100BF00BF103779
:1006E000BD4680BD001002400020024080B483B0AF
:1006F00000AF0346FB710D4B1B680C4A23F004034B
:100700001360FB79DB08DAB2094B1A70084B1B78CF
:100710001A465201D21A92001344DB009AB2054BDA
:100720001A8000BF0C37BD4680BC704710E000E067
:10073000340100203601002080B485B000AF78601D
:10074000124B1B781946124A7B6801FB03F3536076
:100750000F4B00229A600E4B01221A600C4B1B6853
:10076000FB60FB6803F00103002B04D0FB6803F47B
:100770008033002BF2D0064B00221A60044B00227B
:100780009A6000BF1437BD4680BC7047340100201A
:1007900010E000E080B485B000AF0346FB80FB882A
:1007A000124A12881146124A01FB03F35360104BA0
:1007B00000229A600E4B01221A600D4B1B68FB60F1
:1007C000FB6803F00103002B04D0FB6803F48033C3
:1007D000002BF2D0064B00221A60054B00229A60D3
:1007E00000BF1437BD4680BC704700BF36010020F3
:1007F00010E000E00000000080B500AF384B1B693E
:1008000003F00103002B67D0354B1B69344A23F0FA
:1008100001031361334B1B78012B0FD1324B1B7833
:100820000133DAB2304B1A702F4B1B780A2B05D1EB
:100830002D4B00221A702B4B00221A70042001F05D
:1008400067F80346294A13600F21032002F0CCFF0A
:100850000346184604F01CF80346254A1360244B4F
:100860001B68184600F050F80346224A1360224BDA
:100870001B780133DAB2204B1A701F4B1B78042B04
:100880000AD91A4B1B68184600F082F803461B4A27
:100890001360194B00221A70164B1A68174B1B680D
:1008A000D31A174A136000F027F9164B1B68184635
:1008B00000F09CF90346002B04D1114B1B6818462D
:1008C00000F0F6F8642000F0F9FE02F0ABFE0346FB
:1008D0000C4A136000F030F90023184680BD00BFB9
:1008E000002C0140B9000020B8000020BC0000200E
:1008F000C800002038010020410100203C010020F8
:10090000C0000020C400002090B585B000AF786022
:100910001A49786803F00AFF0346FB60184B1B680E
:100920001946F86803F002FF03461A46154B1A6091
:10093000154B1B6883F00043F968184604F000F873
:1009400003461C460F4B1B68104A12681146184696
:1009500003F0F6FF03461946204603F0E7FE034680
:10096000184604F0B3F90346BB60054AFB68136000
:10097000BB6818461437BD4690BD00BF00604245B5
:100980004401002048010020080000200C00002045
:10099000B0B582B000AF78603D4B1B687A68D31A5F
:1009A000184603F079FF03463A4A13603A4B1B6836
:1009B000184603F0D5FB32A3D3E9002303F028FC4B
:1009C00002460B461046194603F05CFE0346324AC7
:1009D0001360314B1B68184603F0C2FB04460D46FA
:1009E0002C4B1B68184603F0BBFB27A3D3E900235D
:1009F00003F00EFC02460B462046294603F052FA4D
:100A000002460B461046194603F03CFE0346224AB6
:100A10001360214B1B68214A12681146184603F0E7
:100A200085FE03461A461E4B1A601B4B1B681B4A69
:100A30001360194B1B681B4A12681146184603F0D5
:100A40007FFF03461C46164B1B68174A1268114667
:100A5000184603F075FF03461946204603F068FE6A
:100A600003461A46114B1A60104B1B68184604F0D7
:100A70002DF9034618460837BD46B0BDAFF30080D8
:100A80009A9999999999E93F9A9999999999C93F08
:100A9000040000204C0100205001002054010020DF
:100AA0005801002010000020140000205C010020EC
:100AB00080B582B000AF78607B68002B06DA0B4B04
:100AC00001221A600A4B00221A6005E0074B00223F
:100AD0001A60074B01221A60786800F0DBF80246C2
:100AE000044B1A6400BF0837BD4680BDB081214267
:100AF000B48121420004004080B483B000AF41F6CD
:100B0000F4237B607B685A420A4B1B689A4203DDE0
:100B10007B685B42074A1360064B1B687A689A42FF
:100B200002DA044A7B68136000BF0C37BD4680BC04
:100B3000704700BFC000002080B582B000AF4FF406
:100B400082637B60642002F06FF803461A46234BF1
:100B50001A60224B1B68012B02D1214B01221A6023
:100B60001E4B1B68022B02D11D4B02221A601C4B2C
:100B70001B68012B14D11B4B1B680433194A1360EB
:100B8000194B1B680433184A1360174B1B687A68AB
:100B90009A4205D1124B00221A60134B00221A60B0
:100BA0000F4B1B68022B14D10E4B1B68043B0D4AE4
:100BB00013600D4B1B6804330B4A13600A4B1B6810
:100BC0007A689A4205D1064B00221A60064B002231
:100BD0001A6000BF0837BD4680BD00BF600100201D
:100BE00064010020040000206801002080B584B06A
:100BF00000AF7860204B1B78012B0BD11E4B0122DC
:100C00001A700123FB731D4B00221A601C4B00223B
:100C10001A6001E00023FB731A4B1B681A4918463F
:100C200004F02CF80346002B0CD1164B1B68174917
:100C3000184604F041F80346002B03D17B68B3F556
:100C40002F7F06DA124B1B780133DAB2104B1A7081
:100C500002E00F4B00221A700D4B1B78782B05D148
:100C60000B4B00221A70044B01221A70FB7B1846B2
:100C70001037BD4680BD00BF00000020B481214276
:100C8000B0812142C800002000601045006074451A
:100C90006C01002080B485B000AF78607B68002BC9
:100CA00003DA7B685B42FB6001E07B68FB60FB680A
:100CB00018461437BD4680BC704700BF80B582B06F
:100CC00002AFB94A0021002002F00EFBB74B1B68AF
:100CD000184604F021F802460C2300930323002158
:100CE000282002F094FAB24A0021392002F0FCFADE
:100CF000AE4B1B68AF49184603F022FE0346184668
:100D000003F0E4FF0246AC4B83FB02139910D317A8
:100D1000C91A0B469B000B445B00D11A0A460C23F0
:100D20000093012300213D2002F071FAA34A002123
:100D30005F2002F0D9FAA24B1B68184603F0ECFFC3
:100D400002460C230093022300216C2002F05FFA7C
:100D50009C4A0A21002002F0C7FA9B4B1B681846E8
:100D600003F0DAFF02460C23009303230A21282014
:100D700002F04DFA8E4A0A21392002F0B5FA924B60
:100D80001B688C49184603F0DBFD0346184603F048
:100D90009DFF0246884B83FB02139910D317C91A93
:100DA0000B469B000B445B00D11A0A460C230093B0
:100DB00001230A213D2002F02AFA804A0A215F20FD
:100DC00002F092FA814B1B68184603F0A5FF024619
:100DD0000C23009302230A216C2002F018FA7C4AAB
:100DE0001421002002F080FA7A4B1B68184603F0A9
:100DF00093FF02460C23009303231421282002F0C2
:100E000006FA6B4A1421392002F06EFA714B1B6806
:100E10006849184603F094FD0346184603F056FF50
:100E20000246654B83FB02139910D317C91A0B4670
:100E30009B000B445B00D11A0A460C23009301234C
:100E400014213D2002F0E3F95C4A14215F2002F0F6
:100E50004BFA614B1B68184603F05EFF02460C23F9
:100E60000093022314216C2002F0D1F95B4A1E2169
:100E7000002002F039FA5A4B1B68184603F04CFF69
:100E800002460C23009303231E21282002F0BFF901
:100E9000474A1E21392002F027FA514B1B68454969
:100EA000184603F04DFD0346184603F00FFF0246B7
:100EB000414B83FB02139910D317C91A0B469B00B1
:100EC0000B445B00D11A0A460C23009301231E2118
:100ED0003D2002F09CF9394A1E215F2002F004FAFD
:100EE000404B1B68184603F017FF02460C23009383
:100EF00002231E216C2002F08AF93B4B1B684FF045
:100F00007E51184603F0B0FE0346002B20D001238B
:100F100000930C23592200214B2002F0EBF801230F
:100F200000930C234E220A214B2002F0E3F8012308
:100F300000930C234E2214214B2002F0DBF80123F6
:100F400000930C234E221E214B2002F0D3F8A1E087
:100F5000254B1B684FF08041184603F085FE034681
:100F6000002B43D0012300930C234E2200214B2061
:100F700002F0C0F8012300930C2359220A214B20D0
:100F800002F0B8F8012300930C234E2214214B20C9
:100F900002F0B0F8012300930C234E221E214B20B7
:100FA00002F0A8F876E000BFB86100080800002051
:100FB000C06100080000204167666666C4610008E1
:100FC0001C000020C86100080C0000202000002048
:100FD000D06100081000002024000020D861000823
:100FE000140000202800002018000020684B1B6817
:100FF0006849184603F038FE0346002B20D0012331
:1010000000930C234E2200214B2002F073F80123A1
:1010100000930C234E220A214B2002F06BF801238F
:1010200000930C23592214214B2002F063F8012372
:1010300000930C234E221E214B2002F05BF829E086
:10104000534B1B684FF08141184603F00DFE0346D9
:10105000002B1FD0012300930C234E2200214B2094
:1010600002F048F8012300930C234E220A214B2062
:1010700002F040F8012300930C234E2214214B2050
:1010800002F038F8012300930C2359221E214B2033
:1010900002F030F8404A2821502002F025F93F4B59
:1010A0001B681A460C230093052328215F2002F0B9
:1010B000AEF83B4A2821002002F016F9394A2821CF
:1010C000292002F011F9384A28213F2002F00CF9BA
:1010D000364B1B68364A82FB03125211DB17D31AB8
:1010E0001A460C230093022328211C2002F08FF8BB
:1010F0002E4B1B682E4A82FB03125111DA178A1AF3
:10110000642101FB02F29A1A0C2300930223282186
:10111000332002F07CF8254B1A68254B83FB021321
:101120005911D317CB1A642101FB03F3D31A092BEE
:1011300007DC0C2300930223002228212D2002F03B
:1011400066F81C4A3221502002F0CEF81A4B1B6878
:101150001A460C230093052332215F2002F057F832
:10116000164A3221002002F0BFF8154B1B681846C2
:1011700003F0D2FD02460C230093042332211E20EB
:1011800002F045F801F0A2FE00BFBD4680BD00BFE1
:101190001800002000004040E0610008040000202A
:1011A000E4610008C0610008EC610008C400002090
:1011B0001F85EB51F0610008BC000020F4610008BD
:1011C000C800002080B500AF1E4B1B6801211846E7
:1011D00001F015FC1C4B1B68184603F05DFB034631
:1011E0000221184601F00BFC03214FF0000001F032
:1011F00006FC032001F076FC03461A46134B1A70D6
:10120000134B00221A7013E000BF124B1B6803F04F
:101210004003002BF9D00E4B1B781A460E4B9A5CFC
:101220000C4B5A600A4B1B780133DAB2084B1A7028
:10123000074B1A78054B1B789A42E5D300BF00BFD5
:1012400080BD00BFC8000020BC000020720100204B
:101250007001002000380140C8010020000000009B
:1012600090B583B000AF786039608F4B1B6819462A
:10127000386803F05BFA03461A468C4B1B68194624
:10128000104603F05DFB03461A46894B1B6819465E
:10129000104603F04DFA03461A46854B1A60854BFB
:1012A0001B68854A52681146184603F03FFA034608
:1012B0001A46814B9B681946104603F037FA0346DD
:1012C0001A467E4B1A607C4BDB6883F000437B4AF6
:1012D0005360794BDB6883F00043784A9360784B26
:1012E0001B68764AD360744B1C68744B1B686F4A4A
:1012F00012681146184603F023FB034619462046A0
:1013000003F016FA03461A466B4B1A606A4B5C6888
:101310006A4B5B68654A12681146184603F010FB79
:1013200003461946204603F003FA03461A46624B69
:101330005A60614B9C68614B9B685C4A126811461D
:10134000184603F0FDFA03461946204603F0F0F96B
:1013500003461A46584B9A60574BDC68574BDB687C
:10136000524A12681146184603F0EAFA0346194633
:10137000204603F0DDF903461A464F4BDA604C4B2A
:101380001B681946786803F0D1F903461A464D4B9D
:101390001A604D4B1B78184603F07EFA0246464B06
:1013A0001B681946104603F0CBFA03461A46474B12
:1013B0001A60454B1B78184603F06EFA02463E4B06
:1013C0009B681946104603F0BBFA03461A46404B89
:1013D0001A603D4B1B78184603F05EFA02463B4B01
:1013E0001B681946104603F0ABFA03461A46394B00
:1013F0001B681946104603F09BF903461A46364B04
:101400001A60324B1B68344A12681146184603F0C2
:101410004BFB03461A46314B1A602D4B1B682E4A74
:1014200012681146184603F03FFB03461A462C4B40
:101430001A60264B1B682B4A1360234B1B781846F7
:1014400003F02AFA02461C4B5B681946104603F06B
:1014500077FA03461A46244B1A60174B1C681F4B39
:101460001B68204A12681146184603F069FA0346C1
:101470001946204603F05AF903461A460E4B1A60E5
:101480000D4B5C68154B1B68174A126811461846CD
:1014900003F056FA03461946204603F047F903467F
:1014A0001A46054B5A6021E0800100203C000020D4
:1014B000780100203000002044000020A40100201A
:1014C000340000208401002040000020880100201A
:1014D0008C010020380000209001002094010020A1
:1014E000980100209C010020A00100202D4B9C6849
:1014F0002D4B1B682D4A12681146184603F020FA3E
:1015000003461946204603F011F903461A46254BB7
:101510009A60244BDC68244B1B68254A12681146EC
:10152000184603F00DFA03461946204603F0FEF86C
:1015300003461A461B4BDA601E4B1B681E4A126894
:101540001146184603F0FCF903461A461B4B1B686C
:101550001946104603F0ECF803461A46174B1A607A
:10156000114B1B68144A12681146184603F0E8F93B
:1015700003461A46124B1B681946104603F0D8F86A
:1015800003461A460E4B1A600D4B1B681946386805
:1015900003F0CCF803461A460A4B1A6000BF0C371A
:1015A000BD4690BD44000020980100209C01002011
:1015B000A001002094010020840100207801002077
:1015C000800100207C0100202DE9B04F82B000AFE7
:1015D00078603960264B1B687968184603F0B0F9CB
:1015E0000346184602F0BCFD04460D46204B1B681E
:1015F00019464FF07E5003F099F80346184602F062
:10160000AFFD804689461B4B1B68184602F0A8FDBB
:1016100082468B46386802F0A3FD13A3D3E900236A
:1016200002F0F6FD02460B465046594602F03AFCDF
:1016300002460B464046494602F0EAFD02460B468A
:101640002046294602F02EFC02460B46104619465B
:1016500003F018F80346074A136000BF0837BD4679
:10166000BDE8B08FAFF300807B14AE47E17A743FE2
:101670002C0000207801002080B400AF0D4B9B6946
:101680000C4A43F0040393610B4B1B680A4A23F492
:1016900070231360084B1B68074A43F44033136000
:1016A000054BDB68044A43F01003D36000BFBD461E
:1016B00080BC7047001002400008014080B483B035
:1016C00000AF0346FB80FB88002B03D10D4B0022AB
:1016D0001A6011E00C4B1B6801330B4A13600A4B74
:1016E0001A68FB889A4207D1064B1B68054ADB4300
:1016F0001360054B00221A6000BF0C37BD4680BC4A
:10170000704700BF90012142B401002080B500AFB6
:10171000424BDB69414A43F00103D3613F4B9B6974
:101720003E4A43F0040393613D4B1B683C4A23F05F
:10173000FF0313603A4B1B68394A43F044031360BC
:101740004FF08043DB684FF0804243F00103D360E9
:101750004FF08043DB684FF0804243F04003D3609A
:1017600001231C2203210120FEF706FE4FF08043D7
:1017700000229A624FF080434FF6FF72DA624FF018
:1017800080431B684FF0804223F4407313604FF096
:1017900080431B684FF0804223F0600313604FF0DA
:1017A00080439B694FF0804243F0010393614FF007
:1017B00080439B694FF0804243F4807393614FF004
:1017C00080431B6A4FF0804223F0020313624FF004
:1017D00080431B6A4FF0804223F0200313624FF0D6
:1017E00080439B694FF0804243F0300393614FF098
:1017F00080439B684FF0804243F0030393604FF0B7
:10180000804342F210725A624FF080431B684FF0DF
:10181000804243F00103136000BF80BD001002400E
:101820000008014080B500AF364BDB69354A43F014
:101830000403D361334B9B69324A43F0080393613D
:10184000314B1B68304A23F07F4313602E4B1B68DB
:101850002D4A43F0884313602C4BDB682B4A43F03E
:101860000103D360294BDB68284A43F04003D3606F
:1018700001231E2203210120FEF77EFD234B0022BF
:101880009A62224B4FF6FF72DA62204B1B681F4AA6
:1018900023F4407313601D4B1B681C4A23F0600344
:1018A00013601A4B9B69194A43F001039361174B6C
:1018B0009B69164A43F480739361144B1B6A134A65
:1018C00023F002031362114B1B6A104A23F020031A
:1018D00013620E4B9B690D4A43F0300393610B4B2F
:1018E0009B680A4A43F003039360084B42F210726C
:1018F0005A62064B1B68054A43F00103136000BFA0
:1019000080BD00BF00100240000C014000080040F4
:1019100080B485B000AF0346FB71FB79042B14D073
:10192000042B17DC022B02D0032B06D012E04FF061
:1019300080435B6A1BB2FB600EE00A4B5B6A1BB222
:10194000FB60084B00225A6206E0074B5B6A1BB241
:10195000FB6001E00023FB60FB6818461437BD46BE
:1019600080BC7047000400400008004080B400AF15
:10197000054B1B69044B1B69034A23F001031361E8
:1019800000BFBD4680BC70470008004080B400AF77
:101990004FF080431B694FF080431B694FF080423A
:1019A00023F00103136100BFBD4680BC704700BF38
:1019B00090B585B000AF786039607B683F4A02FB24
:1019C00003F3184602F064FF04463B681B01184607
:1019D00002F05EFF03461946204603F065F8034611
:1019E000FB60F86803F098F903467B817B89184611
:1019F00002F052FF03461946F86802F097FE0346CC
:101A00004FF08341184602F09BFF0346184603F04F
:101A100083F903463B817B891B017B817A893B8962
:101A200013447B81264B9B69254A43F0080393614D
:101A3000234BDB69224A43F48023D361214B5B684B
:101A4000204A23F47F4353601E4B5B681D4A43F4D6
:101A50000B4353601B4BDB681A4A43F48063D3602B
:101A6000174B1B69164A43F480231361144B1B69FF
:101A7000134A23F480231361134A7B899360124B2A
:101A8000DB68114A43F4005343F00C03D3600E4B60
:101A9000DB680D4A43F48073D3600B4BDB680A4A62
:101AA00043F02003D3600223272201210220FEF706
:101AB00063FC00BF1437BD4690BD00BF40420F001D
:101AC00000100240000C01400048004080B400AF0C
:101AD0000D4B1B6803F02003002B11D00A4B5B68F1
:101AE0001A460A4B1A60094B1B68DAB2084B1A7087
:101AF000074B5A78064B9A70054B1A78044B5A706C
:101B000000BFBD4680BC704700480040C4010020B3
:101B1000BC01002080B400AF0A4B9B69094A43F026
:101B200008039361084B5B68074A23F0FF03536087
:101B3000054B5B68044A43F03303536000BFBD4666
:101B400080BC704700100240000C014080B500AF1F
:101B5000164B5B68154A23F0F0035360134B5B6828
:101B6000124A43F030035360114B01221A60114BAB
:101B70001B68002B01D1002315E00F4B01221A60D6
:101B80000120FEF7D9FD0A4B00221A60094B1B68A1
:101B9000002B01D0002306E00120FEF7CDFD064B0F
:101BA00000221A600123184680BD00BF000C0140CE
:101BB000A481214224812142A081214280B500AF2D
:101BC0000F4B5B680E4A23F0F00353600C4B5B68CD
:101BD0000B4A43F0300353600A4B00221A600A4B51
:101BE00000221A600120FEF7A7FD064B01221A60B1
:101BF000054B01221A600120FEF79EFD00BF80BD4B
:101C0000000C0140A0812142A481214280B582B014
:101C100000AF0023FB71194B5B68184A23F0F003F7
:101C20005360164B5B68154A43F080035360144BB6
:101C300001221A600120FEF77FFD124B01221A607B
:101C40000120FEF779FD0CE0FB790133FB71FB7994
:101C5000322B03D9FFF7B2FF00230AE00120FEF781
:101C60006BFD094B1B68002BEED1064B00221A605E
:101C7000012318460837BD4680BD00BF000C014057
:101C8000A4812142A08121422481214280B500AF5C
:101C90000F4B00221A600F4B5B680E4A23F0F003D3
:101CA00053600C4B5B680B4A43F0300353600A4BA4
:101CB00000221A600120FEF73FFD054B01221A6049
:101CC0000120FEF739FD024B00221A6000BF80BDE3
:101CD000A0812142000C0140A481214280B500AFC7
:101CE0000F4B00221A600F4B5B680E4A23F0F00383
:101CF00053600C4B5B680B4A43F0300353600A4B54
:101D000001221A600120FEF717FD054B01221A601F
:101D10000120FEF711FD024B00221A6000BF80BDBA
:101D2000A0812142000C0140A481214280B584B0F1
:101D300000AF0346FB711A4B5B68194A23F0F003AE
:101D40005360174B5B68164A43F030035360154BE2
:101D500000221A600023FB7319E0FB79DB09DAB279
:101D6000114B1A60FB795B00FB710120FEF7E4FC6C
:101D70000C4B01221A600120FEF7DEFC094B002209
:101D80001A600120FEF7D8FCFB7B0133FB73FB7B61
:101D9000072BE2D900BF00BF1037BD4680BD00BF92
:101DA000000C0140A0812142A481214280B584B071
:101DB00000AF3B600346FB710B46BB7113467B7162
:101DC000FFF7C4FE0346002B01D1012331E0FB796C
:101DD0005B00DBB21846FFF7A9FFFFF717FF0346CA
:101DE000002B03D1FFF7EAFE012322E0BB7918465E
:101DF000FFF79CFFFFF70AFF0023FB6012E0FB6880
:101E00003A6813441B781846FFF790FFFFF7FEFE71
:101E10000346002B03D1FFF7D1FE002309E0FB6846
:101E20000133FB607B79FA689A42E8DBFFF7C6FE74
:101E3000002318461037BD4680BD80B582B000AF84
:101E40003B600346FB710B46BB7113467B71FFF78A
:101E50007DFE0346002B01D101233FE0FB795B00AF
:101E6000DBB21846FFF762FFFFF7D0FE0346002BF8
:101E700003D1FFF7A3FE012330E0BB791846FFF73B
:101E800055FFFFF7C3FEFFF761FEFB795B00DBB296
:101E90000133DBB21846FFF749FFFFF7B7FE17E043
:101EA0007B79012B07D1002000F01CF803461A466D
:101EB0003B681A7006E0012000F014F803461A4649
:101EC0003B681A703B6801333B607B79013B7B7157
:101ED0007B79002BE4D1FFF771FE00231846083709
:101EE000BD4680BD80B584B000AF0346FB710023C2
:101EF000BB731C4B5B681B4A23F0F0035360194B08
:101F00005B68184A43F0800353600023FB7318E0BA
:101F1000154B00221A600220FEF70EFC124B012224
:101F20001A60BB7B5B00BB73104B1B68002B02D09D
:101F3000BB7B0133BB730220FEF7FEFBFB7B01334F
:101F4000FB73FB7B072BE3D9FB79002B02D0FFF758
:101F50009DFE01E0FFF7C2FEBB7B18461037BD4671
:101F600080BD00BF000C0140A0812142248121429C
:101F700080B584B000AF03460A46FB711346BB71BF
:101F80000023FB73FFF7E2FDFB791846FFF7CEFE57
:101F9000FB7B0133FB73FFF739FEBB791846FFF774
:101FA000C5FEFB7B0133FB73FFF730FEFFF7CEFD71
:101FB000FB790133DBB21846FFF7B8FEFB7B013338
:101FC000FB73FFF723FE0020FFF78CFF0346FB7334
:101FD000FFF7F4FDFB7B18461037BD4680BD90B57A
:101FE00085B000AF3B600346FB710B46BB711346E7
:101FF0007B710023FB73FFF7A9FDFB791846FFF700
:1020000095FEFFF703FEBB791846FFF78FFEFFF73B
:10201000FDFDFFF79BFDFB790133DBB21846FFF7AF
:1020200085FEFFF7F3FD0023FB7318E0FA7B7B7955
:10203000013B9A4208D0FB7B3A68D4180120FFF795
:1020400051FF0346237007E0FB7B3A68D418002059
:10205000FFF748FF03462370FB7B0133FB73FA7BDA
:102060007B799A42E2D3FFF7A9FDFB7B1846143730
:10207000BD4690BD80B584B000AF3B600346FB71A8
:102080000B46BB7113467B710023FB73FFF75EFDAC
:10209000FB791846FFF74AFEFFF7B8FDBB791846F3
:1020A000FFF744FEFFF7B2FD0023FB730BE0FB7B61
:1020B0003A6813441B781846FFF738FEFFF7A6FD71
:1020C000FB7B0133FB73FA7B7B799A42EFD3FFF7FB
:1020D00075FD012318461037BD4680BD80B582B01E
:1020E00000AF03463A60FB710B46BB71BA79FB79CE
:1020F00011461846FFF73CFF03461A463B681A7024
:10210000012318460837BD4680BD80B582B000AFB8
:102110000346FB710B46BB7113467B717B1DB9797E
:10212000F8790122FFF7A6FF034618460837BD4697
:1021300080BD90B585B000AF0446084611461A46EA
:102140002346FB710346BB710B467B7113463B7103
:1021500007F10E02B979FB791846FFF7BFFF034676
:10216000002B37D07B790133FF2202FA03F35AB2F6
:102170007B79C3F108013B790B44013BFF2141FA14
:1021800003F35BB213435BB2FB7397F820203B79F8
:10219000C3F1080302FA03F387F8203097F82020F0
:1021A0007B79C3F1070342FA03F387F82030BA7B47
:1021B000FB7B1340DBB2BB73BA7B97F82030134331
:1021C000DBB2BB73BA7BB979FB791846FFF79DFF89
:1021D000034600E0002318461437BD4690BD90B575
:1021E00085B000AF0446084611461A462346FB71E7
:1021F0000346BB710B467B7113463B7107F10F021F
:10220000B979FB791846FFF769FF3B79002B0AD0B3
:102210007B79012202FA03F35AB2FB7B5BB21343D0
:102220005BB2DBB20BE07B79012202FA03F35BB213
:10223000DB435AB2FB7B5BB213405BB2DBB2FB7396
:10224000FA7BB979FB791846FFF75FFF034618461A
:102250001437BD4690BD00BF80B500AF00F0ACFCA8
:10226000012207210020FEF7D9F8012205210020D4
:10227000FEF7D4F801220B210020FEF7CFF801224F
:102280000C210020FEF7CAF80223172202210220A7
:10229000FEF772F80223282202210220FEF76CF8D2
:1022A00000BF80BD98B500AF0520FEF773FA184B4C
:1022B0001B68002B09D1174B1B78002B0CBF012387
:1022C0000023DBB21A46134B1A70134B1B68002B0A
:1022D00016D1124B1C684FF07E51204602F028FAAE
:1022E00003461A460D4B1A604FF08141204602F01A
:1022F000BBFC0346002B03D0084B4FF07E521A6004
:10230000074B20225A61064B80225A6100BF98BDBC
:1023100014012142000000201C012142180000206D
:102320000004014080B500AF0520FEF733FA7F4B73
:102330001B68002B59D17E4B1B684FF07E5118460D
:1023400002F092FC0346002B0CD07A4B1B687A4AB1
:1023500012681146184602F0E9F903461A46754B11
:102360001A6042E0724B1B684FF08041184602F041
:102370007BFC0346002B0CD0704B1B68704A126824
:102380001146184602F0D2F903461A466B4B1A6002
:102390002BE0674B1B686B49184602F065FC03464F
:1023A000002B0CD0684B1B68684A1268114618460F
:1023B00002F0BCF903461A46634B1A6015E05C4B09
:1023C0001B684FF08141184602F04EFC0346002B7B
:1023D0000BD05F4B1B685F4A12681146184602F02B
:1023E000A5F903461A465A4B1A605B4B1B68002B33
:1023F00059D14F4B1B684FF07E51184602F034FC08
:102400000346002B0CD04B4B1B684B4A12681146FD
:10241000184602F08DF903461A46464B1A6042E010
:10242000434B1B684FF08041184602F01DFC0346E9
:10243000002B0CD0414B1B68414A126811461846CC
:1024400002F076F903461A463C4B1A602BE0384BF3
:102450001B683C49184602F007FC0346002B0CD0D1
:10246000394B1B68394A12681146184602F060F968
:1024700003461A46344B1A6015E02D4B1B684FF08B
:102480008141184602F0F0FB0346002B0BD0304B85
:102490001B68304A12681146184602F049F9034693
:1024A0001A462B4B1A60234B1B684FF0000118464D
:1024B00002F0EEFB0346002B03D01E4B4FF0000250
:1024C0001A601E4B1B684FF00001184602F0E0FB3B
:1024D0000346002B03D0194B4FF000021A601A4B31
:1024E0001B684FF00001184602F0D2FB0346002B98
:1024F00003D0154B4FF000021A60154B1B684FF0CC
:102500000001184602F0C4FB0346002B03D0104B19
:102510004FF000021A60114B4FF400625A610F4BEA
:102520004FF480525A6100BF80BD00BF2C01214290
:1025300018000020080000201C0000200C000020D3
:102540002000002000004040100000202400002057
:102550001400002028000020300121420004014026
:1025600080B500AF1C4B9B691B4A43F00403936189
:10257000194B9B69184A43F008039361174B1B687A
:10258000164A23F470431360144B1B68134A43F438
:1025900040531360124B1B68114A23F47F431360AE
:1025A0000F4B1B680E4A43F4034313600C4BDB686C
:1025B0000B4A43F00403D360084BDB68074A43F03F
:1025C0000803D36000F0B2FB064B00221A60064BF2
:1025D00001221A6000BF80BD00100240000C0140C3
:1025E000000801408C8121428801214280B582B0DF
:1025F00000AF194A3B4692E8030018600433197093
:10260000012000F0F3FB3B4605221946302000F084
:102610008FF83B4605221946102000F05BF8002396
:10262000FB7109E0FB7908333B4413F8083CA52B08
:1026300006D1FB790133FB71FB79042BF2D900E061
:1026400000BFFB79052B01D0012300E000231846D1
:102650000837BD4680BD00BF0C62000880B584B05D
:1026600000AF03460A46FB711346BB710A4B0022BA
:102670001A60FB79184600F0F5FB0346FB73BB7943
:10268000184600F0EFFB044B01221A60FB7B184652
:102690001037BD4680BD00BF8801214280B584B09F
:1026A00000AF0346FB710A4B00221A60FB79184603
:1026B00000F0D8FBFF2000F0D5FB0346FB73044B72
:1026C00001221A60FB7B18461037BD4680BD00BF53
:1026D0008801214290B585B000AF03463960FB7197
:1026E0001346BB71114B00221A60FB79184600F0AB
:1026F000B9FB0346BB730023FB730AE0FB7B3A681C
:10270000D418FF2000F0AEFB03462370FB7B01339F
:10271000FB73FA7BBB799A42F0D3044B01221A6017
:10272000BB7B18461437BD4690BD00BF88012142CF
:1027300080B584B000AF03463960FB711346BB71AE
:10274000104B00221A60FB79184600F08BFB034601
:10275000BB730023FB7309E03B685A1C3A601B788B
:10276000184600F07FFBFB7B0133FB73FA7BBB79E0
:102770009A42F1D3034B01221A60BB7B18461037F3
:10278000BD4680BD8801214280B584B000AF78602D
:10279000012000F02BFB184B00221A6020227968E0
:1027A000A020FFF7C5FF144B01221A6000BF134B96
:1027B0001B68002BFBD10720FFF770FF0346FB735C
:1027C000FB7B19462720FFF749FFFB7B03F0100333
:1027D000002B05D0FF21E120FFF740FF102307E089
:1027E000FB7B03F02003002B01D0202300E0FF231C
:1027F00018461037BD4680BD8C8121420C01214214
:1028000080B584B000AF7860012000F0EFFA0720B7
:10281000FFF744FF0346FB73FB7B19462720FFF7B6
:102820001DFFFB7B03F04003002B0AD020227968B8
:102830006120FFF74FFFFF21E220FFF70FFF00238A
:1028400000E0012318461037BD4680BD80B500AFBB
:10285000124B00221A60052211492A20FFF768FF57
:1028600001212120FFF7FAFE01212220FFF7F6FEC9
:1028700028212520FFF7F2FE20213120FFF7EEFE70
:102880000F212620FFF7EAFE0F212020FFF7E6FEAA
:10289000024B01221A6000BF80BD00BF8C81214223
:1028A0000462000880B500AF144B00221A600522B4
:1028B00013493020FFF73CFF052212492A20FFF779
:1028C00037FF01212120FFF7C9FE01212220FFF758
:1028D000C5FE1A212420FFF7C1FE28212520FFF77D
:1028E000BDFE0F212620FFF7B9FE0E212020FFF7A5
:1028F000B5FE024B01221A6000BF80BD8C812142CF
:10290000FC6100080462000880B500AF0BE00B4BCF
:102910001B68002B0CBF01230023DAB2074B1A609F
:102920006420FDF737FFFFF761FE0346002BEED171
:10293000034802F069FA00BF80BD00BF9001214248
:102940001462000880B582B000AF03460A46FB80DF
:102950001346BB80134B9B69124A43F40063936197
:10296000114AFB88D362104ABB8893620E4BDB6826
:102970000D4A43F00103D3600B4BDB680A4A43F076
:102980004003D360084B1B68074A43F00103136000
:102990000223192201210120FDF7EEFC00BF0837B8
:1029A000BD4680BD00100240002C014080B487B0BD
:1029B00000AFF860B9601346FB71FB687B61FB797F
:1029C000BA6813447A6912781A70FB790133BA68CD
:1029D00013447A6952781A70FB790233BA68134447
:1029E0007A6992781A70FB790333BA6813447A696A
:1029F000D2781A7000BF1C37BD4680BC704780B5C6
:102A000082B000AF78600B46FB70FB780A2B63D86E
:102A1000FB78002B60D0FB78013B092B5DD801A22D
:102A200052F823F04D2A00085B2A0008692A0008A2
:102A3000772A0008852A0008932A0008A12A00089E
:102A4000AF2A0008BD2A0008CB2A00083B1D01223E
:102A500023491846FFF7AAFF3FE03B1D0522204906
:102A60001846FFF7A3FF38E03B1D09221C49184612
:102A7000FFF79CFF31E03B1D0D2219491846FFF777
:102A800095FF2AE03B1D112215491846FFF78EFFDE
:102A900023E03B1D152212491846FFF787FF1CE073
:102AA0003B1D19220E491846FFF780FF15E03B1D1C
:102AB0001D220B491846FFF779FF0EE03B1D21222E
:102AC00007491846FFF772FF07E03B1D252204491E
:102AD0001846FFF76BFF00E000BF0837BD4680BD1A
:102AE000C801002080B483B000AF0346FB71FB79BE
:102AF0000A2B02D8FB79002B01D1002354E02D4B87
:102B000024221A70FB79013B092B4CD801A252F800
:102B100023F000BF3D2B0008472B0008512B000875
:102B20005B2B0008652B00086F2B0008792B000831
:102B3000832B00088F2B00089B2B00081D4B0522C0
:102B40005A71062330E01B4B09225A720A232BE0EC
:102B5000184B0D225A730E2326E0164B11225A747D
:102B6000122321E0134B15225A7516231CE0114B3A
:102B700019225A761A2317E00E4B1D225A771E236C
:102B800012E00C4B212283F8212022230CE0094B78
:102B9000252283F82520262306E0064B292283F8E8
:102BA00029202A2300E0002318460C37BD4680BCAC
:102BB000704700BFC801002080B400AF164B9B696E
:102BC000154A43F004039361144B5B68134A23F4E2
:102BD0007F235360114B5B68104A43F40823536012
:102BE0000E4BDB680D4A43F4C053D3600B4B1A689D
:102BF0000A490B4B13400B60084B1A680749094BF5
:102C000013430B60054BDB68044A43F0A403D36015
:102C100000BFBD4680BC7047001002400008014064
:102C2000FFF00F0F0008808080B483B000AF034630
:102C3000FB71384B1B68002B06D1374B1B880133C7
:102C40009AB2354B1A8002E0334B00221A80314B86
:102C50001B68002B06D1314B1B78002B02D12F4B68
:102C600001221A702E4B1B78002B18D12B4B1B788E
:102C7000012B08D12B4B1B780133DAB2294B1A7088
:102C8000274B01221A70274B1B78022B07D1254BAB
:102C900000221A70244B00221A80022334E01D4BBC
:102CA0001B68012B05D11D4B00221A701C4B002202
:102CB0001A701C4B1B78012B25D11B4B1B88013331
:102CC0009AB2194B1A80FB799AB2174B1B889A4219
:102CD0000DD2FB799AB2104B1B889A4207D9114B3F
:102CE00000221A70104B00221A8001230CE0FB799D
:102CF0009AB2094B1B889A4205D20A4B00221A70DD
:102D0000094B00221A80002318460C37BD4680BCB0
:102D1000704700BF08012142F2010020F4010020A9
:102D2000F5010020F6010020F801002080B500AF79
:102D30002B4B9B692A4A43F004039361284B9B6900
:102D4000274A43F480539361264B1B68254AC3F3FB
:102D500013031360234B1B68224A43F03B4343F4A5
:102D6000300313601F4BDB681E4A43F0E003D3605F
:102D70001D4B1D4A1B6813601B4B1B681A4A43F40A
:102D800000731360184B1B68174A43F48073136079
:102D9000154B1B68144A43F004031360124B124A8C
:102DA0001B681360104B104A1B6813600E4B0E4AD1
:102DB0001B6813600C4B1B680B4A43F0380313600D
:102DC000094B094A1B681360074B1B68064A43F00E
:102DD00040031360FF2000F045F800BF80BD00BF36
:102DE00000100240000801400030014080B483B070
:102DF00000AF0346FB711A4B1A6819494FF6C773A7
:102E000013400B60FB79002B04D1154B144A1B684F
:102E1000136019E0FB79012B06D1114B1B68104A96
:102E200043F0100313600FE0FB79022B06D10C4B2B
:102E30001B680B4A43F01803136005E0084B1B683E
:102E4000074A43F038031360054B1B68044A43F0FC
:102E50004003136000BF0C37BD4680BC704700BF05
:102E60000030014080B485B000AF0346FB71002301
:102E7000FB7307E0FB7B0133FB73FB7BC82B01D9A2
:102E800000231CE0104B9B6803F00203002BF1D0E1
:102E90000D4AFB79D3600023FB7307E0FB7B013312
:102EA000FB73FB7BC82B01D9002308E0064B9B6812
:102EB00003F00103002BF1D0034BDB68DBB21846B3
:102EC0001437BD4680BC70470030014080B582B0E9
:102ED00000AF0023FB7126E0FB79503BDBB2002101
:102EE000184600F02BF80021002000F027F8002100
:102EF000102000F023F80023BB710DE0BA79FB79B4
:102F00000D49D2000A4413441B780121184600F0F1
:102F100015F8BB790133BB7197F90630002BEDDA58
:102F2000FB790133FB71FB79072BD5D900BF00BFBB
:102F30000837BD4680BD00BFFC01002080B485B0CD
:102F400000AF03460A46FB711346BB71BB79002BE9
:102F500003D0164B01221A6002E0144B00221A60C3
:102F60000023FB7316E0124B00221A6097F907301A
:102F7000002B03DA0F4B01221A6002E00D4B0022F6
:102F80001A600B4B01221A60FB795B00FB71FB7B23
:102F90000133FB73FB7B072BE5D9044B01221A603D
:102FA00000BF1437BD4680BC704700BFBC01214242
:102FB000948121429081214280B500AF00218D2073
:102FC000FFF7BCFF00211420FFF7B8FF0021AF205E
:102FD000FFF7B4FF00BF80BD80B500AF00218D209A
:102FE000FFF7ACFF00211020FFF7A8FF0021AE2063
:102FF000FFF7A4FF00BF80BD80B582B000AF002303
:10300000FB7114E00023BB710AE0BA79FB790C492B
:10301000D2000A44134400221A70BB790133BB71F9
:1030200097F90630002BF0DAFB790133FB71FB795D
:10303000072BE7D9FFF74AFF00BF0837BD4680BD21
:10304000FC01002080B485B000AF0346FB710B4645
:10305000BB7113467B710023FB7397F90730002B7C
:1030600041DBBB793F2B3ED8BB79DB08DBB2C3F138
:103070000703BB73BB7903F007037B737B7BC3F14F
:103080000703012202FA03F3FB737B79002B12D0B2
:10309000FA79BB7B1649D2000A4413441878FA79AE
:1030A000BB7BF97B0143C8B21149D2000A441344E7
:1030B00002461A7018E0FA79BB7B0D49D2000A4427
:1030C00013441B785AB297F90F30DB435BB21340BD
:1030D00059B2FA79BB7BC8B20549D2000A441344FD
:1030E00002461A7000E000BF1437BD4680BC70472E
:1030F000FC01002090B585B000AF0446084611469B
:103100001A462346FB710346BB710B467B7113467F
:103110003B71BB793B737B79203B7B710023BB7395
:103120004DE03B790C2B0BD17A79B97B28481346BB
:103130005B0013449B0003440B441B78FB7307E0C4
:103140007A79BB7B234912010A4413441B78FB7331
:1031500000237B732DE097F90F30002B07DA97F8E7
:103160002020B979FB791846FFF76CFF0CE097F83F
:103170002030002B0CBF01230023DBB21A46B979A3
:10318000FB791846FFF75EFFFB7B5B00FB73BB79A7
:103190000133BB71BA793B7BD21A3B799A4205D194
:1031A0003B7BBB71FB790133FB7105E07B7B01331A
:1031B0007B737B7B072BCED9BB7B0133BB73BA7B85
:1031C0003B799A42ADD300BF00BF1437BD4690BDD6
:1031D000246200089866000880B485B000AF0346FA
:1031E0000A46FB711346BB710123FB6004E0FA79C8
:1031F000FB6802FB03F3FB60BB795A1EBA71002B1C
:10320000F5D1FB6818461437BD4680BC704790B5B1
:1032100087B002AF3A601A460346FB710B46BB719A
:1032200013467B710023BB730023FB7351E07A7953
:10323000FB7BD31ADBB2013BDBB219460A20FFF756
:10324000CBFF02463B68B3FBF2F1264BA3FB012305
:10325000DA0813469B0013445B00CA1A13467B73BB
:10326000BB7B002B1DD1FA7B7B79013B9A4218DA9C
:103270007B7B002B13D197F820305B08DBB2FA7B05
:1032800002FB03F3DAB2FB791344D8B297F820308B
:10329000B979012200922022FFF72CFF16E00123CA
:1032A000BB7397F820305B08DBB2FA7B02FB03F3B9
:1032B000DAB2FB791344D8B27B7B3033DAB297F8B9
:1032C0002030B97901240094FFF714FFFB7B013310
:1032D000FB73FA7B7B799A42A9D300BF00BF1437F6
:1032E000BD4690BDCDCCCCCC80B584B002AF0346FA
:1032F0003A60FB710B46BB711FE0FB797A2B04D956
:103300000023FB71BB791033BB71BB793A2B05D914
:103310000023FB71FB79BB71FFF76EFE3B681A78E7
:10332000B979F879012300930C23FFF7E3FEFB79C9
:103330000833FB713B6801333B603B681B78002B13
:10334000DBD100BF00BF0837BD4680BD80B500AFF0
:103350004C4B9B694B4A43F0080393614A4B1B68F3
:10336000494A23F47F0323F470431360464B1B68E0
:10337000454A43F4081343F400531360414B9B69DF
:10338000404A43F004039361404B5B683F4A23F09B
:10339000704353603D4B5B683C4A43F000535360BD
:1033A0003B4B00221A606420FDF7F4F9384B0122F0
:1033B0001A600021AE20FFF7C1FD0021D520FFF7E4
:1033C000BDFD00215020FFF7B9FD0021A820FFF727
:1033D000B5FD00213F20FFF7B1FD0021D320FFF70D
:1033E000ADFD00210020FFF7A9FD00214020FFF7DF
:1033F000A5FD00218D20FFF7A1FD00211420FFF77E
:103400009DFD00212020FFF799FD00210220FFF7FC
:1034100095FD0021A120FFF791FD0021C020FFF7BD
:103420008DFD0021DA20FFF789FD00211220FFF732
:1034300085FD00218120FFF781FD0021EF20FFF7AE
:103440007DFD0021D920FFF779FD0021F120FFF754
:1034500075FD0021DB20FFF771FD00213020FFF713
:103460006DFD0021A420FFF769FD0021A620FFF7D4
:1034700065FD0021AF20FFF761FDFFF7BDFD00BF37
:1034800080BD00BF00100240000C01400008014058
:103490008C8121420000000080B400AF4A4B9B6940
:1034A000494A43F004039361484B1B68474A23F0A1
:1034B00070631360444B9B69434A43F40073936108
:1034C000414BDB68404A43F40073D3603E4BDB68FA
:1034D0003D4A23F40073D3603B4B5B683A4A23F4C4
:1034E00040435360384B5B68374A43F400435360B2
:1034F000374B5B68364A23F07F4323F470235360D5
:10350000334B334A5B685360314B5B68304A23F47A
:10351000807353602E4B9B682D4A23F00203936007
:103520002B4B9B682A4A23F460239360284B9B68AB
:10353000274A43F460239360254B9B68244A43F455
:1035400080139360224B9B68214A23F400639360AD
:103550001F4BDB6A1E4A23F47003D3621C4BDB6AE9
:103560001B4B0022DA621A4B1B69194A23F0706365
:103570001361174B1B69164A43F4E0131361144B94
:103580009B68134A43F001039360114B9B68104AF8
:1035900043F00803936000BF0D4B9B6803F00803E2
:1035A000002BF9D10A4B9B68094A43F0040393604E
:1035B00000BF074B9B6803F00403002BF9D100BF49
:1035C00000BFBD4680BC70470010024000080140AB
:1035D0000024014080B483B000AF0346FB71104B60
:1035E0005B6B0F4A23F01F0353630D4B5A6BFB7940
:1035F0000B4913434B630A4B9B68094A43F480030E
:10360000936000BF064B1B6803F00203002BF9D048
:10361000034BDB6C9BB218460C37BD4680BC704731
:103620000024014080B582B000AF0620FFF7D2FF32
:103630000346184600F082FD17A3D3E9002300F0EB
:10364000E7FD02460B46104619464FF00002144BA8
:1036500000F0DEFD02460B46104619464FF0000210
:10366000104B00F0D5FD02460B46104619464FF0B0
:1036700000020D4B00F0F6FE02460B4610461946BE
:1036800000F0D8FF03467B607B6818460837BD46CC
:1036900080BD00BFAFF300806666666666660A405E
:1036A00000002640000059400000B04080B500AF47
:1036B0004A4B9B69494A43F004039361484B1B689A
:1036C000474A23F470431360444B9B69434A43F4D5
:1036D00000739361414BDB68404A43F40073D3604D
:1036E0003E4BDB683D4A23F40073D3603B4B5B6881
:1036F0003A4A23F440435360384B5B68374A43F4FB
:1037000000435360374B5B68364A23F07F4323F412
:1037100070235360334B334A5B685360314B5B68B3
:10372000304A23F4807353602E4B9B682D4A23F05C
:10373000020393602B4B9B682A4A23F46023936017
:10374000284B9B68274A43F460239360254B9B6872
:10375000244A43F480139360224B9B68214A23F44C
:10376000006393601F4BDB6A1E4A23F47003D3622D
:103770001C4BDB6A1B4B0022DA621A4B1B69194A8D
:1037800023F470431361174B1B69164A43F46063BB
:103790001361144B9B68134A43F001039360114B70
:1037A0009B68104A43F00803936000BF0D4B9B6871
:1037B00003F00803002BF9D10A4B9B68094A43F038
:1037C0000403936000BF074B9B6803F00403002BC6
:1037D000F9D10120FCF7DEFF00BF80BD00100240E0
:1037E000000801400024014080B584B000AF0346CA
:1037F0000A46FB711346BB710023FB600023FB727A
:103800000EE0FB791846FFF7E5FE03461A46FB6813
:103810001344FB60C820FCF78FFFFB7A0133FB7277
:10382000FA7ABB799A42ECD3BB79FA68B2FBF3F32C
:103830009BB218461037BD4680BD00BF80B400AFB4
:103840000B4B9B690A4A43F008039361094B5B6881
:10385000084A9BB25360074B5B68064A43F0085323
:1038600043F40813536000BFBD4680BC704700BFDF
:1038700000100240000C014080B582B000AF03464A
:103880000A46FB801346BB80FFF7D8FF274BDB6956
:10389000264A43F00203D361244B9B69234A43F039
:1038A00008039361224B1B68214A23F0FF03136036
:1038B0001F4B1B681E4A43F0BB0313601D4AFB8865
:1038C000D3621C4ABB8893621A4BDB69194A43F4E2
:1038D000C043D361174BDB69164A43F06003D361E1
:1038E000144BDB69134A43F40063D361114BDB696A
:1038F000104A43F00803D3610E4B1B6A0D4A43F490
:10390000805313620B4B1B6A0A4A43F480731362A1
:10391000084B80221A60074B1B68064A43F00103DC
:10392000136000BF0837BD4680BD00BF00100240D5
:10393000000C01400004004080B483B000AF786008
:1039400039607B68002B02DA4FF0FF3304E03B68FC
:103950004FF400525A60002318460C37BD4680BC15
:10396000704780B485B000AF78600B4B1B68002BAC
:1039700002D1094B094A1A60074B1B68FB60064BD2
:103980001A687B681344044A1360FB6818461437AE
:10399000BD4680BC704700BFFC05002050070020DA
:1039A00080B483B000AF78604FF0FF3318460C3717
:1039B000BD4680BC704780B483B000AF78604FF0E4
:1039C000FF3318460C37BD4680BC704780B483B0C7
:1039D00000AF7860012318460C37BD4680BC7047A5
:1039E00080B485B000AFF860B9607A6000231846F3
:1039F0001437BD4680BC704780B483B000AF786098
:103A000000BEFDE780B483B000AF7860396000BFCE
:103A10000C37BD4680BC704780B400AF4FF0FF3319
:103A20001846BD4680BC704780B485B000AFF860D2
:103A3000B9607A604FF0FF3318461437BD4680BC3A
:103A4000704780B485B000AFF860B9607A604FF01D
:103A5000FF3318461437BD4680BC704780B483B02E
:103A600000AF786039604FF0FF3318460C37BD4621
:103A700080BC704780B483B000AF78604FF0FF33F4
:103A800018460C37BD4680BC704780B483B000AF89
:103A9000786039604FF0FF3318460C37BD4680BC64
:103AA000704780B483B000AF786039604FF0FF3367
:103AB00018460C37BD4680BC704780B400AF00BFCD
:103AC000BD4680BC704700BFBC6C000800000020F1
:103AD000B8000020B80000205007002070B54FF05B
:103AE000FF0C4CF4E06C1CEA11541DBF1CEA13558A
:103AF00094EA0C0F95EA0C0F00F0DEF82C4481EAF2
:103B0000030621EA4C5123EA4C5350EA013518BF11
:103B100052EA033541F4801143F4801338D0A0FBFE
:103B200002CE4FF00005E1FB02E506F00042E0FBAB
:103B300003E54FF00006E1FB03569CF0000F18BFB1
:103B40004EF0010EA4F1FF04B6F5007F64F5407459
:103B500004D25FEA4E0E6D4146EB060642EAC621EC
:103B600041EA55514FEAC52040EA5E504FEACE2E59
:103B7000B4F1FD0C88BFBCF5E06F1ED8BEF1004F5C
:103B800008BF5FEA500E50F1000041EB045170BDD8
:103B900006F0004646EA010140EA020081EA03011C
:103BA000B4EB5C04C2BFD4EB0C0541EA045170BD18
:103BB00041F480114FF0000E013C00F3AB8014F192
:103BC000360FDEBF002001F0004170BDC4F10004DB
:103BD000203C35DA0C341BDC04F11404C4F120055C
:103BE00000FA05F320FA04F001FA05F240EA0200B7
:103BF00001F0004221F0004110EBD37021FA04F6ED
:103C000042EB06015EEA430E08BF20EAD37070BDA6
:103C1000C4F10C04C4F1200500FA04F320FA05F005
:103C200001FA04F240EA020001F0004110EBD37007
:103C300041F100015EEA430E08BF20EAD37070BD77
:103C4000C4F1200500FA05F24EEA020E20FA04F350
:103C500001FA05F243EA020321FA04F001F00041FF
:103C600021FA04F220EA020000EBD3705EEA430E70
:103C700008BF20EAD37070BD94F0000F0FD101F09F
:103C80000046400041EB010111F4801F08BF013CD8
:103C9000F7D041EA060195F0000F18BF704703F016
:103CA0000046520043EB030313F4801F08BF013D9D
:103CB000F7D043EA0603704794EA0C0F0CEA135559
:103CC00018BF95EA0C0F0CD050EA410618BF52EA13
:103CD0004306D1D181EA030101F000414FF0000019
:103CE00070BD50EA410606BF1046194652EA430627
:103CF00019D094EA0C0F02D150EA013613D195EA9B
:103D00000C0F05D152EA03361CBF104619460AD1E2
:103D100081EA030101F0004141F0FE4141F47001EC
:103D20004FF0000070BD41F0FE4141F4780170BDDC
:103D30004FF0FF0C1CEAD0521EBF1CEAD15392EA8E
:103D40000C0F93EA0C0F6FD01A4480EA010C40026A
:103D500018BF5FEA41211ED04FF0006343EA5010C4
:103D600043EA5111A0FB01310CF00040B1F5000F06
:103D70003EBF490041EAD3715B0040EA010062F1B5
:103D80007F02FD2A1DD8B3F1004F40EBC25008BF9F
:103D900020F00100704790F0000F0CF0004C08BFBD
:103DA00049024CEA502040EA51207F3AC2BFD2F18A
:103DB000FF0340EAC250704740F400004FF0000398
:103DC000013A5DDC12F1190FDCBF00F000407047D2
:103DD000C2F10002410021FA02F1C2F1200200FA10
:103DE00002FC5FEA310040F1000053EA4C0308BFD7
:103DF00020EADC70704792F0000F00F0004C02BF28
:103E0000400010F4000F013AF9D040EA0C0093F0A2
:103E1000000F01F0004C02BF490011F4000F013BFC
:103E2000F9D041EA0C018FE70CEAD15392EA0C0F6A
:103E300018BF93EA0C0F0AD030F0004C18BF31F0D5
:103E4000004CD8D180EA010000F00040704790F0AB
:103E5000000F17BF90F0004F084691F0000F91F04F
:103E6000004F14D092EA0C0F01D142020FD193EA15
:103E70000C0F03D14B0218BF084608D180EA01009D
:103E800000F0004040F0FE4040F40000704740F079
:103E9000FE4040F44000704781F0004102E000BF66
:103EA00083F0004330B54FEA41044FEA430594EAFA
:103EB000050F08BF90EA020F1FBF54EA000C55EA35
:103EC000020C7FEA645C7FEA655C00F0E2804FEA06
:103ED0005454D4EB5555B8BF6D420CDD2C4480EAE8
:103EE000020281EA030382EA000083EA010180EA18
:103EF000020281EA0303362D88BF30BD11F0004F66
:103F00004FEA01314FF4801C4CEA113102D040429B
:103F100061EB410113F0004F4FEA03334CEA1333D6
:103F200002D0524263EB430394EA050F00F0A780EE
:103F3000A4F10104D5F1200E0DDB02FA0EFC22FAE9
:103F400005F2801841F1000103FA0EF2801843FADD
:103F500005F359410EE0A5F120050EF1200E012ACE
:103F600003FA0EFC28BF4CF0020C43FA05F3C0180C
:103F700051EBE37101F0004507D54FF0000EDCF185
:103F8000000C7EEB00006EEB0101B1F5801F1BD32E
:103F9000B1F5001F0CD349085FEA30004FEA3C0C32
:103FA00004F101044FEA445212F5800F80F09A8028
:103FB000BCF1004F08BF5FEA500C50F1000041EB2C
:103FC000045141EA050130BD5FEA4C0C404141EB30
:103FD0000101013C28BFB1F5801FE9D291F0000F2B
:103FE00004BF01460020B1FA81F308BF2033A3F1DA
:103FF0000B03B3F120020CDA0C3208DD02F1140CD1
:10400000C2F10C0201FA0CF021FA02F10CE002F10B
:104010001402D8BFC2F1200C01FA02F120FA0CFC04
:10402000DCBF41EA0C019040E41AA2BF01EB04514D
:10403000294330BD6FEA04041F3C1CDA0C340EDC4B
:1040400004F11404C4F1200220FA04F001FA02F38E
:1040500040EA030021FA04F345EA030130BDC4F14C
:104060000C04C4F1200220FA02F001FA04F340EA41
:104070000300294630BD21FA04F0294630BD94F0F2
:10408000000F83F4801306BF81F480110134013DD9
:104090004EE77FEA645C18BF7FEA655C29D094EA4A
:1040A000050F08BF90EA020F05D054EA000C04BFC8
:1040B0001946104630BD91EA030F1EBF00210020B3
:1040C00030BD5FEA545C05D14000494128BF41F052
:1040D000004130BD14F580043CBF01F5801130BDB6
:1040E00001F0004545F0FE4141F470014FF0000041
:1040F00030BD7FEA645C1ABF194610467FEA655CF2
:104100001CBF0B46024650EA013406BF52EA033593
:1041100091EA030F41F4002130BD00BF90F0000F81
:1041200004BF0021704730B54FF4806404F13204BD
:104130004FF000054FF0000150E700BF90F0000F76
:1041400004BF0021704730B54FF4806404F132049D
:1041500010F0004548BF40424FF000013EE700BF6D
:1041600042004FEAE2014FEA31014FEA02701FBFFD
:1041700012F07F4393F07F4F81F06051704732F02F
:104180007F4208BF704793F07F4F04BF41F4002186
:10419000704730B54FF4607401F0004521F00041E4
:1041A0001CE700BF50EA010208BF704730B54FF06E
:1041B00000050AE050EA010208BF704730B511F06F
:1041C000004502D5404261EB41014FF4806404F1A7
:1041D00032045FEA915C3FF4D8AE4FF003025FEA2D
:1041E000DC0C18BF03325FEADC0C18BF033202EBB1
:1041F000DC02C2F1200300FA03FC20FA02F001FA0B
:1042000003FE40EA0E0021FA02F11444BDE600BFAD
:1042100070B54FF0FF0C4CF4E06C1CEA11541DBF5C
:104220001CEA135594EA0C0F95EA0C0F00F0DEF827
:104230002C4481EA030621EA4C5123EA4C5350EA0C
:10424000013518BF52EA033541F4801143F480135D
:1042500038D0A0FB02CE4FF00005E1FB02E506F0EE
:104260000042E0FB03E54FF00006E1FB03569CF043
:10427000000F18BF4EF0010EA4F1FF04B6F5007F49
:1042800064F5407404D25FEA4E0E6D4146EB0606BB
:1042900042EAC62141EA55514FEAC52040EA5E5044
:1042A0004FEACE2EB4F1FD0C88BFBCF5E06F1ED8EE
:1042B000BEF1004F08BF5FEA500E50F1000041EB25
:1042C000045170BD06F0004646EA010140EA0200D2
:1042D00081EA0301B4EB5C04C2BFD4EB0C0541EAF4
:1042E000045170BD41F480114FF0000E013C00F309
:1042F000AB8014F1360FDEBF002001F0004170BD2D
:10430000C4F10004203C35DA0C341BDC04F1140445
:10431000C4F1200500FA05F320FA04F001FA05F2D1
:1043200040EA020001F0004221F0004110EBD3709E
:1043300021FA04F642EB06015EEA430E08BF20EACA
:10434000D37070BDC4F10C04C4F1200500FA04F36D
:1043500020FA05F001FA04F240EA020001F00041FF
:1043600010EBD37041F100015EEA430E08BF20EA72
:10437000D37070BDC4F1200500FA05F24EEA020EBA
:1043800020FA04F301FA05F243EA020321FA04F0E9
:1043900001F0004121FA04F220EA020000EBD370A0
:1043A0005EEA430E08BF20EAD37070BD94F0000FA0
:1043B0000FD101F00046400041EB010111F4801FD4
:1043C00008BF013CF7D041EA060195F0000F18BF85
:1043D000704703F00046520043EB030313F4801FC1
:1043E00008BF013DF7D043EA0603704794EA0C0F7B
:1043F0000CEA135518BF95EA0C0F0CD050EA410691
:1044000018BF52EA4306D1D181EA030101F000410D
:104410004FF0000070BD50EA410606BF1046194635
:1044200052EA430619D094EA0C0F02D150EA013641
:1044300013D195EA0C0F05D152EA03361CBF104682
:1044400019460AD181EA030101F0004141F0FE4121
:1044500041F470014FF0000070BD41F0FE4141F4A5
:10446000780170BD70B54FF0FF0C4CF4E06C1CEAA5
:1044700011541DBF1CEA135594EA0C0F95EA0C0F5A
:1044800000F0A7F8A4EB050481EA030E52EA033515
:104490004FEA013100F088804FEA03334FF0805536
:1044A00045EA131343EA12634FEA022245EA111563
:1044B00045EA10654FEA00260EF000419D4208BF14
:1044C000964244F1FD0404F5407402D25B084FEAC1
:1044D0003202B61A65EB03055B084FEA32024FF46D
:1044E00080104FF4002CB6EB020E75EB030E22BFCA
:1044F000B61A754640EA0C005B084FEA3202B6EB8A
:10450000020E75EB030E22BFB61A754640EA5C0038
:104510005B084FEA3202B6EB020E75EB030E22BFC8
:10452000B61A754640EA9C005B084FEA3202B6EBC9
:10453000020E75EB030E22BFB61A754640EADC0088
:1045400055EA060E18D04FEA051545EA16754FEAEA
:1045500006164FEAC30343EA52734FEAC2025FEA08
:104560001C1CC0D111F4801F0BD141EA00014FF097
:1045700000004FF0004CB6E711F4801F04BF014368
:104580000020B4F1FD0C88BFBCF5E06F3FF6AFAE84
:10459000B5EB030C04BFB6EB020C5FEA500C50F114
:1045A000000041EB045170BD0EF0004E4EEA113197
:1045B00014EB5C04C2BFD4EB0C0541EA045170BD9E
:1045C00041F480114FF0000E013C90E645EA060EE2
:1045D0008DE60CEA135594EA0C0F08BF95EA0C0F10
:1045E0003FF43BAF94EA0C0F0AD150EA01347FF458
:1045F00034AF95EA0C0F7FF425AF104619462CE72F
:1046000095EA0C0F06D152EA03353FF4FDAE104691
:10461000194622E750EA410618BF52EA43067FF4E2
:10462000C5AE50EA41047FF40DAF52EA43057FF472
:10463000EBAE12E74FEA410212F5001215D211D586
:104640006FF47873B3EB625212D94FEAC12343F08F
:10465000004343EA505311F0004F23FA02F018BF11
:10466000404270474FF00000704750EA013005D1DA
:1046700011F0004008BF6FF0004070474FF000009D
:10468000704700BF4FEA4102B2F1E04324BFB3F5E7
:10469000001CDCF1FE5C0DD901F0004C4FEAC002B9
:1046A0004CEA5070B2F1004F40EB830008BF20F09D
:1046B0000100704711F0804F21D113F13872BCBF57
:1046C00001F00040704741F480114FEA5252C2F1AC
:1046D0001802C2F1200C10FA0CF320FA02F018BFF5
:1046E00040F001004FEAC1234FEAD32303FA0CFC48
:1046F00040EA0C0023FA02F34FEA4303CCE77FEAD7
:10470000625307D150EA01331EBF4FF0FE4040F420
:104710004000704701F0004040F0FE4040F40000CF
:10472000704700BF80F0004002E000BF81F0004110
:1047300042001FBF5FEA410392EA030F7FEA226C47
:104740007FEA236C6AD04FEA1262D2EB1363C1BFD7
:10475000D218414048404140B8BF5B42192B88BF46
:10476000704710F0004F40F4000020F07F4018BF69
:10477000404211F0004F41F4000121F07F4118BF89
:10478000494292EA030F3FD0A2F1010241FA03FC31
:1047900010EB0C00C3F1200301FA03F100F0004319
:1047A00002D5494260EB4000B0F5000F13D3B0F1E1
:1047B000807F06D340084FEA310102F10102FE2A50
:1047C00051D2B1F1004F40EBC25008BF20F00100C0
:1047D00040EA03007047490040EB0000013A28BF5F
:1047E000B0F5000FEDD2B0FA80FCACF1080CB2EBE2
:1047F0000C0200FA0CF0AABF00EBC2505242184360
:10480000BCBFD0401843704792F0000F81F4000104
:1048100006BF80F400000132013BB5E74FEA4103D7
:104820007FEA226C18BF7FEA236C21D092EA030F43
:1048300004D092F0000F08BF0846704790EA010FBD
:104840001CBF0020704712F07F4F04D1400028BFEA
:1048500040F00040704712F100723CBF00F50000CC
:10486000704700F0004343F0FE4040F40000704702
:104870007FEA226216BF08467FEA236301464202AE
:1048800006BF5FEA412390EA010F40F480007047C1
:104890004FF0000304E000BF10F0004348BF404267
:1048A0005FEA000C08BF704743F0964301464FF0A3
:1048B00000001CE050EA010208BF70474FF00003FF
:1048C0000AE000BF50EA010208BF704711F0004340
:1048D00002D5404261EB41015FEA010C02BF844610
:1048E0000146002043F0B64308BFA3F18053A3F56F
:1048F0000003BCFA8CF2083AA3EBC25310DB01FAB6
:1049000002FC634400FA02FCC2F12002BCF1004F39
:1049100020FA02F243EB020008BF20F001007047CA
:1049200002F1200201FA02FCC2F1200250EA4C001E
:1049300021FA02F243EB020008BF20EADC70704764
:104940004FF0FF0C1CEAD0521EBF1CEAD15392EA72
:104950000C0F93EA0C0F6FD01A4480EA010C40024E
:1049600018BF5FEA41211ED04FF0006343EA5010A8
:1049700043EA5111A0FB01310CF00040B1F5000FEA
:104980003EBF490041EAD3715B0040EA010062F199
:104990007F02FD2A1DD8B3F1004F40EBC25008BF83
:1049A00020F00100704790F0000F0CF0004C08BFA1
:1049B00049024CEA502040EA51207F3AC2BFD2F16E
:1049C000FF0340EAC250704740F400004FF000037C
:1049D000013A5DDC12F1190FDCBF00F000407047B6
:1049E000C2F10002410021FA02F1C2F1200200FAF4
:1049F00002FC5FEA310040F1000053EA4C0308BFBB
:104A000020EADC70704792F0000F00F0004C02BF0B
:104A1000400010F4000F013AF9D040EA0C0093F086
:104A2000000F01F0004C02BF490011F4000F013BE0
:104A3000F9D041EA0C018FE70CEAD15392EA0C0F4E
:104A400018BF93EA0C0F0AD030F0004C18BF31F0B9
:104A5000004CD8D180EA010000F00040704790F08F
:104A6000000F17BF90F0004F084691F0000F91F033
:104A7000004F14D092EA0C0F01D142020FD193EAF9
:104A80000C0F03D14B0218BF084608D180EA010081
:104A900000F0004040F0FE4040F40000704740F05D
:104AA000FE4040F4400070474FF0FF0C1CEAD0522B
:104AB0001EBF1CEAD15392EA0C0F93EA0C0F69D087
:104AC000A2EB030280EA010C49024FEA402037D0F2
:104AD0004FF0805343EA111143EA10130CF00040E9
:104AE0008B4238BF5B0042F17D024FF4000C8B42D9
:104AF00024BF5B1A40EA0C00B3EB510F24BFA3EBB9
:104B0000510340EA5C00B3EB910F24BFA3EB910388
:104B100040EA9C00B3EBD10F24BFA3EBD10340EAE2
:104B2000DC001B0118BF5FEA1C1CE0D1FD2A3FF628
:104B300050AF8B4240EBC25008BF20F001007047DD
:104B40000CF0004C4CEA50207F32C2BFD2F1FF0380
:104B500040EAC250704740F400004FF00003013AB1
:104B600037E792F0000F00F0004C02BF400010F455
:104B7000000F013AF9D040EA0C0093F0000F01F069
:104B8000004C02BF490011F4000F013BF9D041EA8B
:104B90000C0195E70CEAD15392EA0C0F08D14202BE
:104BA0007FF47DAF93EA0C0F7FF470AF084676E791
:104BB00093EA0C0F04D14B023FF44CAF08466EE76A
:104BC00030F0004C18BF31F0004CCAD130F0004238
:104BD0007FF45CAF31F000437FF43CAF5FE700BF90
:104BE0004FF0FF3C06E000BF4FF0010C02E000BFB9
:104BF0004FF0010C4DF804CD4FEA40024FEA41035B
:104C00007FEA226C18BF7FEA236C11D001B052EA10
:104C1000530C18BF90EA010F58BFB2EB030088BFD6
:104C2000C81738BF6FEAE17018BF40F00100704745
:104C30007FEA226C02D15FEA402C05D17FEA236C27
:104C4000E4D15FEA412CE1D05DF8040B704700BF6E
:104C5000844608466146FFE70FB5FFF7C9FF002805
:104C600048BF10F1000F0FBD4DF808EDFFF7F4FF3E
:104C70000CBF012000205DF808FB00BF4DF808EDD7
:104C8000FFF7EAFF34BF012000205DF808FB00BFFA
:104C90004DF808EDFFF7E0FF94BF012000205DF81C
:104CA00008FB00BF4DF808EDFFF7D2FF94BF0120CD
:104CB00000205DF808FB00BF4DF808EDFFF7C8FFC6
:104CC00034BF012000205DF808FB00BF4FEA40021E
:104CD000B2F1FE4F0FD34FF09E03B3EB12620DD92A
:104CE0004FEA002343F0004310F0004F23FA02F094
:104CF00018BF404270474FF00000704712F1610F3B
:104D000001D1420205D110F0004008BF6FF0004011
:104D100070474FF00000704742000ED2B2F1FE4FD4
:104D20000BD34FF09E03B3EB126209D44FEA00237A
:104D300043F0004323FA02F070474FF00000704741
:104D400012F1610F01D1420202D14FF0FF307047E2
:104D50004FF00000704700BFFBF7DAF90B480C4931
:104D60000C4A002302E0D458C4500433C4188C42C7
:104D7000F9D3094A094C002301E013600432A2422E
:104D8000FBD300F00FF8FBF7C9F9704700000020D3
:104D9000B8000020BC6C0008B800002050070020BC
:104DA000FEE7000070B500260C4D0D4C641BA410EE
:104DB000A64209D1FEF781FE00260A4D0A4C641B6B
:104DC000A410A64205D170BD55F8043B98470136A2
:104DD000EEE755F8043B98470136F2E7BC6C000853
:104DE000BC6C0008BC6C0008BC6C00080EB403B5B9
:104DF00003AB53F8042B8168019300F04BF802B029
:104E00005DF804EB03B070470FB407B5064904AB77
:104E1000086853F8042B8168019300F03BF803B055
:104E20005DF804EB04B070475C000020936810B498
:104E3000013B002B936007DA9469A34201DB0A2946
:104E400002D110BC00F046BE1368581C10601970E7
:104E5000084610BC7047F8B506460F461446D518EC
:104E6000AC4201D1002007E03A46304614F8011B5D
:104E7000FFF7DCFF431CF3D1F8BD936810B514466F
:104E800033B100F0BDFC0023A3600023636010BDBC
:104E90001846FAE72DE9F04F0D46144698460646A7
:104EA0009DB018B1036A0BB900F00CFC6B6ED9070A
:104EB00005D4AB899A0502D4A86D00F068F9AB89D6
:104EC0001B0701D52B699BB92946304600F004F930
:104ED00070B16B6EDC0704D54FF0FF301DB0BDE83C
:104EE000F08FAB899805F7D4A86D00F056F9F3E779
:104EF0000023099320238DF8293030234FF0010936
:104F0000CDF80C80DFF8A8818DF82A3023469A4628
:104F100013F8012B0AB1252AF9D1BAEB040B0BD0F7
:104F20005B46224629463046FFF795FF013000F0E8
:104F3000A780099A5A4409929AF80030002B00F091
:104F40009F8000234FF0FF32CDE905230AF1010ACB
:104F5000049307938DF853301A935446052214F89E
:104F6000011B534800F0AAFA049AD8B9D10644BFED
:104F700020238DF85330130744BF2B238DF8533073
:104F80009AF800302A2B15D0544600204FF00A0C16
:104F9000079A214611F8013B303B092B4BD9B0B1A0
:104FA000079214E0A0EB080309FA03F31343A246A7
:104FB0000493D2E7039B191D1B680391002BBBBF11
:104FC0005B4242F0020207930793B8BF0492237832
:104FD0002E2B0AD163782A2B32D1039B02341A1D5F
:104FE0001B68039243EAE3730593DFF8C8A003222A
:104FF0005046217800F062FA38B14022049BA0EBC1
:105000000A00824013430134049314F8011B062262
:1050100029488DF8281000F051FA00283FD0274B7E
:105020001BBB039B073323F0070308330393099B40
:105030003B4409936AE70C4601200CFB0232A8E7C7
:1050400000234FF00A0C194601340593204610F84E
:10505000012B303A092A03D9002BC6D00591C4E7A9
:10506000044601230CFB0121F0E703AB00932A4621
:105070003046134B04A9AFF300800746781CD6D105
:105080006B6ED90705D4AB899A0502D4A86D00F0E0
:1050900084F8AB895B063FF51FAF09981EE703ABA9
:1050A00000932A463046064B04A900F0E9F8E4E7ED
:1050B000886C00088E6C0008926C000800000000EC
:1050C000574E000813460A46014602480068FFF79B
:1050D000E1BE00BF5C00002038B5294B05461868CA
:1050E0000C4618B1036A0BB900F0ECFAB4F90C30B5
:1050F000190722D4DA0607D409222A6043F04003B4
:105100004FF0FF30A38133E0580712D5616B41B1F6
:1051100004F14403994202D0284600F04FFD0023D9
:105120006363A38923F02403A381002363602369BD
:105130002360A38943F00803A38123694BB9A389A2
:1051400003F42073B3F5007F03D02146284600F016
:10515000B4FDB4F90C3013F001020AD00022A260B1
:1051600062695242A261226942B913F08000C5D13E
:1051700038BD990758BF6269A260F4E70020F7E7DD
:105180005C00002070477047704770477047704759
:105190000120704701207047704770472DE9F047A4
:1051A000164698468A680B6907469342B8BF13466D
:1051B000336091F843200C46DDF820900AB10133AA
:1051C00033602368990642BF336802333360256831
:1051D00015F0060506D104F1190AE36832689B1A36
:1051E000AB422BDC94F843302268003B18BF01230C
:1051F000920630D44146384604F14302C847013094
:1052000023D02368226903F00603042B14BF002572
:1052100033684FF0000608BFE56804F11A0408BFC0
:10522000ED1A54F8123C08BF25EAE5759342C4BF55
:105230009B1AED18B5421AD1002008E0012352460E
:1052400041463846C847013003D14FF0FF30BDE832
:10525000F0870135C1E73020E11881F843005A1C7E
:1052600094F845102244023382F84310C2E7012328
:10527000224641463846C8470130E6D00136D9E7D4
:105280002DE9FF470F7E9146782F80460C469A46BF
:105290000C9E01F1430207D8622F0AD8002F00F0BC
:1052A000D180582F00F0B88004F1420684F8427093
:1052B0003AE0A7F16303152BF6D801A151F823F0CA
:1052C000195300082D530008A9520008A9520008DC
:1052D000A9520008A95200082D530008A95200083D
:1052E000A9520008A9520008A95200082B5400082E
:1052F00057530008E5530008A9520008A9520008B6
:105300004D540008A952000857530008A95200083C
:10531000A9520008ED53000833681A1D1B6832605B
:1053200004F1420684F8423001239CE0336820688F
:10533000191D3160060601D51D6803E04506FBD541
:10534000B3F90050002D03DA2D236D4284F8433069
:105350000A23584811E021683368080653F8045BB3
:1053600002D4490648BFADB26F2F336014BF0A2381
:1053700008235048002184F843106668002EA66078
:1053800005DB21682E4321F0040121604BD0164635
:10539000B5FBF3F103FB1157C75D06F8017D2F46FE
:1053A000BB420D46F4D9082B0BD12368DF0708D583
:1053B000236961689942DEBF302306F8013C06F19B
:1053C000FF36921B22614B4621464046CDF800A095
:1053D00003AAFFF7E3FE01304AD14FF0FF3004B0DB
:1053E000BDE8F087236843F0200323607827324824
:1053F00084F84570236831681F0651F8045B02D4B5
:105400005F0648BFADB23160D90744BF43F0200307
:1054100023601DB11023ADE72648E9E7236823F098
:1054200020032360F6E71646BDE733682568181D9C
:10543000616930602E061B6801D5196002E06806BC
:10544000FBD51980002316462361BCE73368002191
:105450001A1D32601E686268304600F02FF808B1ED
:10546000801B606063682361002384F84330AAE7EF
:105470003246494640462369D0470130ADD02368C3
:105480009B0713D4E068039B9842B8BF1846A6E771
:105490000123324649464046D04701309DD0013570
:1054A000E36803995B1AAB42F2DCEBE7002504F1F9
:1054B0001906F5E7996C0008AA6C0008034610B5B8
:1054C000C9B202449342184601D1002003E0047897
:1054D00001338C42F6D110BD002310B50446C0E95B
:1054E0000033C0E90433836081814366C2818361F4
:1054F000194608225C3000F036FC0D4B24626362D2
:105500000C4BA3620C4BE3620C4B23630C4B9C4291
:1055100006D003F16802944202D0D0339C4205D1F8
:1055200004F15800BDE81040FFF72DBE10BD00BFCC
:105530002D570008535700088B570008AF57000835
:1055400008060020024A0349034800F0A5BA00BF3C
:10555000AC000020795E00086000002041680C4B20
:1055600010B59942044601D000F086FCA168094BB1
:10557000994202D0204600F07FFCE168064B994238
:1055800004D02046BDE8104000F076BC10BD00BF3E
:105590000806002070060020D806002008B54B6ED3
:1055A000DA0705D48B899B0502D4886DFFF7EFFDE0
:1055B000002008BD08B54B6EDA0705D48B899B0522
:1055C00002D4886DFFF7E9FD002008BD10B50B4B34
:1055D0000B4C0C4A20461A6004210022FFF77CFF86
:1055E00004F1680001220921FFF776FF04F1D000E1
:1055F0000222BDE810401221FFF76EBF40070020D5
:1056000008060020455500080148FFF7C0BD00BF4F
:10561000070600200148FFF7C0BD00BF07060020B5
:10562000F8B50746FFF7F0FF234B1B680BB9FFF7F0
:10563000CDFF224ED6E90134013B0FD53568002D50
:1056400037D14FF4D671384600F074FC044628BBBD
:105650003060FFF7DFFF0C233B601BE0B4F90C5018
:10566000D5B9174B04F15800E3606566FFF78BFD71
:10567000FFF7D0FF08222946C4E90155C4E90455C3
:105680002560A56104F15C0000F06DFBC4E90D55D7
:10569000C4E912552046F8BD6834CDE704230560FF
:1056A00043600C304FF4D0722946A06000F05BFBE1
:1056B00034603668BEE700BF40070020AC00002021
:1056C0000100FFFF10B50446FFF79EFF236A1BB1E0
:1056D000BDE81040FFF79EBF044B2362044B1B68DC
:1056E000002BF5D1FFF772FFF2E700BF5D55000810
:1056F0004007002008B5FFF787FFBDE808400020FD
:10570000014A024900F0C8B9AC0000209D550008CC
:1057100008B50020034A044900F0BEF9BDE808407E
:10572000FFF778BFAC000020B555000810B50C4657
:10573000B1F90E1000F052F80028ABBF636DA389D9
:105740001B1823F48053ACBF6365A38110BD0020F8
:1057500070472DE9F0411F468B890546DB050C4655
:10576000164605D502230022B1F90E1000F024F8E8
:10577000A389324623F48053A38128463B46B4F9DB
:105780000E10BDE8F04100F061BA10B50C46B1F959
:105790000E1000F011F8431CA38915BF606523F4B7
:1057A000805343F48053A38118BFA38110BDB1F986
:1057B0000E1000F03FBC000038B504460846114604
:1057C0000022054D2A601A46FEF70AF9431C02D151
:1057D0002B6803B1236038BD4C07002038B5044660
:1057E000084611460022054D2A601A46FEF729F99F
:1057F000431C02D12B6803B1236038BD4C07002045
:1058000093682DE9F74F06460C4691461BB90020D8
:1058100003B0BDE8F08F8B89180750D50B69002BBA
:105820004DD0B4F90C30D9F8008013F002076BD1D9
:1058300013F0010300F09C803846BA46BB46BBF12A
:10584000000F00F0038150B95A460A215046FFF775
:1058500035FE002800F000810130A0EB0A07206827
:1058600021695F453A4628BF5A468842A568636960
:1058700040F2F5801D44AA4240F3F18051462A4689
:1058800000F057FA236821462B443046236000F08D
:10589000F3FA002867D17F1B40F0F980214630469B
:1058A00000F0EAFA00285ED1D9F80830AA445B1B60
:1058B000ABEB050BC9F80830002BC0D1A7E7214698
:1058C0003046FFF709FC0028ABD04FF0FF309FE7D0
:1058D000D8E900A508F10808D4F828B0216A002DFD
:1058E000F6D0BD422B46524628BF3B463046D847ED
:1058F000002838DDD9F8083082441B1A2D1AC9F85F
:105900000830002BE8D182E74FF0000A614F55467E
:10591000E2E7D8E9007A08F10808B4F90C30206809
:10592000A268BAF1000FF4D0990563D5524536D874
:1059300013F4906F33D021696569A0EB010B05EB7F
:10594000450505EBD5750BF101026D1052449542EA
:1059500038BF15465B053DD52946304600F0EAFACA
:1059600048B90C233360A38943F04003A381ACE71B
:105970001F469A46D1E75A462169019000F0DAFBAA
:10598000A289019B22F4906242F08002A2815246D9
:10599000236165615B44A5EB0B052360A56052455F
:1059A00028BF5246554639462068019200F0C1F999
:1059B000A368019A9B1AA360236813442360D9F853
:1059C00008302F445B1BAAEB050AC9F80830002BEE
:1059D000A3D11CE72A46304600F0C2F8034600284F
:1059E000D5D13046216900F0E9F8A38923F080037E
:1059F000A381B6E72369834202D36169514515D972
:105A0000524528BF52461546394600F092F9A36820
:105A100022685B1B2A44A3602260002BCFD1214661
:105A2000304600F029FA0028C9D09CE76FF0004307
:105A3000534528BF534693FBF1F3A56A4B433A46BF
:105A40003046216AA847051EB9DC8CE7D8E900ABCF
:105A5000002008F10808F2E60BF10107FFE6934287
:105A600008DCA56A52463046216AA847051E3FF762
:105A700012AF78E75146019200F05BF9019AA368F2
:105A800015469B1AA36023681344236003E7012093
:105A90000AE700BF00FCFF7F2DE9F8430746884670
:105AA00014460026D4E90195B9F1010905D5246809
:105AB000002CF7D13046BDE8F883AB89012B07D91C
:105AC000B5F90E30013303D029463846C0470643A6
:105AD0006835E9E7F8B50E461446054618B1036A7D
