:020000040800F2
:10000000005000204D01000800000000000000002A
:1000100000000000000000000000000000000000E0
:1000200000000000000000000000000000000000D0
:1000300000000000000000000000000000000000C0
:1000400000000000000000000000000000000000B0
:1000500000000000000000000000000000000000A0
:100060000000000000000000000000000000000090
:100070000000000000000000000000000000000080
:100080000000000000000000000000000000000070
:100090000000000000000000000000000000000060
:1000A0000000000000000000000000000000000050
:1000B0000000000000000000000000000000000040
:1000C0000000000000000000000000000000000030
:1000D0000000000000000000000000000000000020
:1000E0000000000000000000000000000000000010
:1000F0000000000000000000000000000000000000
:1001000000000000000000000000000000000000EF
:1001100000000000000000000000000000000000DF
:1001200000000000000000000000000000000000CF
:1001300000000000000000000000000000000000BF
:1001400000000000000000000000000080B487B044
:1001500000AF544B1B68534A43F010031360514BDC
:100160001B68504A43F4807313604E4B1B684D4A22
:1001700043F0040313604C4B1B684B4A23F44013B9
:100180001360494B1B68484A43F480131360474B84
:100190001B68464A23F440331360444B1B68434AB0
:1001A00043F480331360424B1B68414A23F44033CD
:1001B00013603F4B1B683E4A43F4803313603D4B52
:1001C00001221A603C4B01221A603C4B01221A604A
:1001D000394B1B68384A43F40053136000237B619A
:1001E00003E000BF7B6901337B617B69344A934242
:1001F000F7D9314B1B68304A23F4005313600023B6
:100200003B6103E000BF3B6901333B613B6942F264
:100210000F729342F6D9274B1B68264A43F010030E
:1002200013600023FB6003E000BFFB680133FB6049
:10023000FB68234A9342F7D91E4B1B681D4A23F0E3
:10024000100313600023BB6003E000BFBB680133F1
:10025000BB60BB6842F20F729342F6D9174B1B6822
:10026000164A43F01003136000237B6003E000BFD5
:100270007B6801337B607B68114A9342F7D90F4B4F
:100280001B680E4A23F01003136000233B6003E059
:1002900000BF3B6801333B603B6842F20F72934200
:1002A000F6D995E7181002400410014000200140E3
:1002B000000801400C2001400C1001400C080140D6
:0402C0007F1A06009B
:0400000508000000EF
:00000001FF
